{
	"contracts/Auction.sol": {
		"Auction": {
			"abi": [
				{
					"inputs": [],
					"stateMutability": "nonpayable",
					"type": "constructor"
				},
				{
					"inputs": [
						{
							"internalType": "string",
							"name": "",
							"type": "string"
						}
					],
					"name": "auctionEndTime",
					"outputs": [
						{
							"internalType": "uint256",
							"name": "",
							"type": "uint256"
						}
					],
					"stateMutability": "view",
					"type": "function"
				},
				{
					"inputs": [
						{
							"internalType": "string",
							"name": "",
							"type": "string"
						}
					],
					"name": "auctionStartTime",
					"outputs": [
						{
							"internalType": "uint256",
							"name": "",
							"type": "uint256"
						}
					],
					"stateMutability": "view",
					"type": "function"
				},
				{
					"inputs": [
						{
							"internalType": "address",
							"name": "",
							"type": "address"
						}
					],
					"name": "bidAmount",
					"outputs": [
						{
							"internalType": "uint256",
							"name": "",
							"type": "uint256"
						}
					],
					"stateMutability": "view",
					"type": "function"
				},
				{
					"inputs": [],
					"name": "bidding",
					"outputs": [],
					"stateMutability": "payable",
					"type": "function"
				},
				{
					"inputs": [],
					"name": "endAuction",
					"outputs": [],
					"stateMutability": "nonpayable",
					"type": "function"
				},
				{
					"inputs": [],
					"name": "getAuctions",
					"outputs": [
						{
							"internalType": "string[]",
							"name": "",
							"type": "string[]"
						}
					],
					"stateMutability": "view",
					"type": "function"
				},
				{
					"inputs": [
						{
							"internalType": "string",
							"name": "_auctionFor",
							"type": "string"
						},
						{
							"internalType": "uint256",
							"name": "deadline",
							"type": "uint256"
						}
					],
					"name": "inititalize",
					"outputs": [],
					"stateMutability": "nonpayable",
					"type": "function"
				},
				{
					"inputs": [],
					"name": "owner",
					"outputs": [
						{
							"internalType": "address",
							"name": "",
							"type": "address"
						}
					],
					"stateMutability": "view",
					"type": "function"
				},
				{
					"inputs": [],
					"name": "settleMent",
					"outputs": [],
					"stateMutability": "nonpayable",
					"type": "function"
				}
			],
			"devdoc": {
				"kind": "dev",
				"methods": {},
				"version": 1
			},
			"evm": {
				"assembly": "    /* \"contracts/Auction.sol\":62:1108  contract Auction {... */\n  mstore(0x40, 0x80)\n    /* \"contracts/Auction.sol\":367:418  constructor() {... */\n  callvalue\n  dup1\n  iszero\n  tag_1\n  jumpi\n  0x00\n  dup1\n  revert\ntag_1:\n  pop\n    /* \"contracts/Auction.sol\":400:410  msg.sender */\n  caller\n    /* \"contracts/Auction.sol\":392:397  owner */\n  0x00\n  dup1\n    /* \"contracts/Auction.sol\":392:410  owner = msg.sender */\n  0x0100\n  exp\n  dup2\n  sload\n  dup2\n  0xffffffffffffffffffffffffffffffffffffffff\n  mul\n  not\n  and\n  swap1\n  dup4\n  0xffffffffffffffffffffffffffffffffffffffff\n  and\n  mul\n  or\n  swap1\n  sstore\n  pop\n    /* \"contracts/Auction.sol\":62:1108  contract Auction {... */\n  dataSize(sub_0)\n  dup1\n  dataOffset(sub_0)\n  0x00\n  codecopy\n  0x00\n  return\nstop\n\nsub_0: assembly {\n        /* \"contracts/Auction.sol\":62:1108  contract Auction {... */\n      mstore(0x40, 0x80)\n      jumpi(tag_1, lt(calldatasize, 0x04))\n      shr(0xe0, calldataload(0x00))\n      dup1\n      0xab75207d\n      gt\n      tag_11\n      jumpi\n      dup1\n      0xab75207d\n      eq\n      tag_6\n      jumpi\n      dup1\n      0xd7c06919\n      eq\n      tag_7\n      jumpi\n      dup1\n      0xdb774c79\n      eq\n      tag_8\n      jumpi\n      dup1\n      0xe6f1ce52\n      eq\n      tag_9\n      jumpi\n      dup1\n      0xfe67a54b\n      eq\n      tag_10\n      jumpi\n      jump(tag_1)\n    tag_11:\n      dup1\n      0x099ef2f9\n      eq\n      tag_2\n      jumpi\n      dup1\n      0x43279f12\n      eq\n      tag_3\n      jumpi\n      dup1\n      0x4881b603\n      eq\n      tag_4\n      jumpi\n      dup1\n      0x8da5cb5b\n      eq\n      tag_5\n      jumpi\n    tag_1:\n      0x00\n      dup1\n      revert\n        /* \"contracts/Auction.sol\":257:305  mapping(string => uint256) public auctionEndTime */\n    tag_2:\n      callvalue\n      dup1\n      iszero\n      tag_12\n      jumpi\n      0x00\n      dup1\n      revert\n    tag_12:\n      pop\n      tag_13\n      0x04\n      dup1\n      calldatasize\n      sub\n      dup2\n      add\n      swap1\n      tag_14\n      swap2\n      swap1\n      tag_15\n      jump\t// in\n    tag_14:\n      tag_16\n      jump\t// in\n    tag_13:\n      mload(0x40)\n      tag_17\n      swap2\n      swap1\n      tag_18\n      jump\t// in\n    tag_17:\n      mload(0x40)\n      dup1\n      swap2\n      sub\n      swap1\n      return\n        /* \"contracts/Auction.sol\":200:250  mapping(string => uint256) public auctionStartTime */\n    tag_3:\n      callvalue\n      dup1\n      iszero\n      tag_19\n      jumpi\n      0x00\n      dup1\n      revert\n    tag_19:\n      pop\n      tag_20\n      0x04\n      dup1\n      calldatasize\n      sub\n      dup2\n      add\n      swap1\n      tag_21\n      swap2\n      swap1\n      tag_15\n      jump\t// in\n    tag_21:\n      tag_22\n      jump\t// in\n    tag_20:\n      mload(0x40)\n      tag_23\n      swap2\n      swap1\n      tag_18\n      jump\t// in\n    tag_23:\n      mload(0x40)\n      dup1\n      swap2\n      sub\n      swap1\n      return\n        /* \"contracts/Auction.sol\":149:193  mapping(address => uint256) public bidAmount */\n    tag_4:\n      callvalue\n      dup1\n      iszero\n      tag_24\n      jumpi\n      0x00\n      dup1\n      revert\n    tag_24:\n      pop\n      tag_25\n      0x04\n      dup1\n      calldatasize\n      sub\n      dup2\n      add\n      swap1\n      tag_26\n      swap2\n      swap1\n      tag_27\n      jump\t// in\n    tag_26:\n      tag_28\n      jump\t// in\n    tag_25:\n      mload(0x40)\n      tag_29\n      swap2\n      swap1\n      tag_18\n      jump\t// in\n    tag_29:\n      mload(0x40)\n      dup1\n      swap2\n      sub\n      swap1\n      return\n        /* \"contracts/Auction.sol\":86:106  address public owner */\n    tag_5:\n      callvalue\n      dup1\n      iszero\n      tag_30\n      jumpi\n      0x00\n      dup1\n      revert\n    tag_30:\n      pop\n      tag_31\n      tag_32\n      jump\t// in\n    tag_31:\n      mload(0x40)\n      tag_33\n      swap2\n      swap1\n      tag_34\n      jump\t// in\n    tag_33:\n      mload(0x40)\n      dup1\n      swap2\n      sub\n      swap1\n      return\n        /* \"contracts/Auction.sol\":1075:1105  function settleMent()public {} */\n    tag_6:\n      callvalue\n      dup1\n      iszero\n      tag_35\n      jumpi\n      0x00\n      dup1\n      revert\n    tag_35:\n      pop\n      tag_36\n      tag_37\n      jump\t// in\n    tag_36:\n      stop\n        /* \"contracts/Auction.sol\":883:986  function getAuctions() public view returns (string[] memory) {... */\n    tag_7:\n      callvalue\n      dup1\n      iszero\n      tag_38\n      jumpi\n      0x00\n      dup1\n      revert\n    tag_38:\n      pop\n      tag_39\n      tag_40\n      jump\t// in\n    tag_39:\n      mload(0x40)\n      tag_41\n      swap2\n      swap1\n      tag_42\n      jump\t// in\n    tag_41:\n      mload(0x40)\n      dup1\n      swap2\n      sub\n      swap1\n      return\n        /* \"contracts/Auction.sol\":994:1029  function bidding()public payable {} */\n    tag_8:\n      tag_43\n      tag_44\n      jump\t// in\n    tag_43:\n      stop\n        /* \"contracts/Auction.sol\":426:875  function inititalize(string memory _auctionFor, uint256 deadline) public {... */\n    tag_9:\n      callvalue\n      dup1\n      iszero\n      tag_45\n      jumpi\n      0x00\n      dup1\n      revert\n    tag_45:\n      pop\n      tag_46\n      0x04\n      dup1\n      calldatasize\n      sub\n      dup2\n      add\n      swap1\n      tag_47\n      swap2\n      swap1\n      tag_48\n      jump\t// in\n    tag_47:\n      tag_49\n      jump\t// in\n    tag_46:\n      stop\n        /* \"contracts/Auction.sol\":1037:1067  function endAuction()public {} */\n    tag_10:\n      callvalue\n      dup1\n      iszero\n      tag_50\n      jumpi\n      0x00\n      dup1\n      revert\n    tag_50:\n      pop\n      tag_51\n      tag_52\n      jump\t// in\n    tag_51:\n      stop\n        /* \"contracts/Auction.sol\":257:305  mapping(string => uint256) public auctionEndTime */\n    tag_16:\n      0x03\n      dup2\n      dup1\n      mload\n      0x20\n      dup2\n      add\n      dup3\n      add\n      dup1\n      mload\n      dup5\n      dup3\n      mstore\n      0x20\n      dup4\n      add\n      0x20\n      dup6\n      add\n      keccak256\n      dup2\n      dup4\n      mstore\n      dup1\n      swap6\n      pop\n      pop\n      pop\n      pop\n      pop\n      pop\n      0x00\n      swap2\n      pop\n      swap1\n      pop\n      sload\n      dup2\n      jump\t// out\n        /* \"contracts/Auction.sol\":200:250  mapping(string => uint256) public auctionStartTime */\n    tag_22:\n      0x02\n      dup2\n      dup1\n      mload\n      0x20\n      dup2\n      add\n      dup3\n      add\n      dup1\n      mload\n      dup5\n      dup3\n      mstore\n      0x20\n      dup4\n      add\n      0x20\n      dup6\n      add\n      keccak256\n      dup2\n      dup4\n      mstore\n      dup1\n      swap6\n      pop\n      pop\n      pop\n      pop\n      pop\n      pop\n      0x00\n      swap2\n      pop\n      swap1\n      pop\n      sload\n      dup2\n      jump\t// out\n        /* \"contracts/Auction.sol\":149:193  mapping(address => uint256) public bidAmount */\n    tag_28:\n      mstore(0x20, 0x01)\n      dup1\n      0x00\n      mstore\n      keccak256(0x00, 0x40)\n      0x00\n      swap2\n      pop\n      swap1\n      pop\n      sload\n      dup2\n      jump\t// out\n        /* \"contracts/Auction.sol\":86:106  address public owner */\n    tag_32:\n      0x00\n      dup1\n      sload\n      swap1\n      0x0100\n      exp\n      swap1\n      div\n      0xffffffffffffffffffffffffffffffffffffffff\n      and\n      dup2\n      jump\t// out\n        /* \"contracts/Auction.sol\":1075:1105  function settleMent()public {} */\n    tag_37:\n      jump\t// out\n        /* \"contracts/Auction.sol\":883:986  function getAuctions() public view returns (string[] memory) {... */\n    tag_40:\n        /* \"contracts/Auction.sol\":927:942  string[] memory */\n      0x60\n        /* \"contracts/Auction.sol\":962:971  auctionOf */\n      0x04\n        /* \"contracts/Auction.sol\":962:978  auctionOf[owner] */\n      0x00\n        /* \"contracts/Auction.sol\":972:977  owner */\n      dup1\n      0x00\n      swap1\n      sload\n      swap1\n      0x0100\n      exp\n      swap1\n      div\n      0xffffffffffffffffffffffffffffffffffffffff\n      and\n        /* \"contracts/Auction.sol\":962:978  auctionOf[owner] */\n      0xffffffffffffffffffffffffffffffffffffffff\n      and\n      0xffffffffffffffffffffffffffffffffffffffff\n      and\n      dup2\n      mstore\n      0x20\n      add\n      swap1\n      dup2\n      mstore\n      0x20\n      add\n      0x00\n      keccak256\n        /* \"contracts/Auction.sol\":955:978  return auctionOf[owner] */\n      dup1\n      sload\n      dup1\n      0x20\n      mul\n      0x20\n      add\n      mload(0x40)\n      swap1\n      dup2\n      add\n      0x40\n      mstore\n      dup1\n      swap3\n      swap2\n      swap1\n      dup2\n      dup2\n      mstore\n      0x20\n      add\n      0x00\n      swap1\n    tag_55:\n      dup3\n      dup3\n      lt\n      iszero\n      tag_56\n      jumpi\n      dup4\n      dup3\n      swap1\n      0x00\n      mstore\n      keccak256(0x00, 0x20)\n      add\n      dup1\n      sload\n      tag_58\n      swap1\n      tag_59\n      jump\t// in\n    tag_58:\n      dup1\n      0x1f\n      add\n      0x20\n      dup1\n      swap2\n      div\n      mul\n      0x20\n      add\n      mload(0x40)\n      swap1\n      dup2\n      add\n      0x40\n      mstore\n      dup1\n      swap3\n      swap2\n      swap1\n      dup2\n      dup2\n      mstore\n      0x20\n      add\n      dup3\n      dup1\n      sload\n      tag_60\n      swap1\n      tag_59\n      jump\t// in\n    tag_60:\n      dup1\n      iszero\n      tag_61\n      jumpi\n      dup1\n      0x1f\n      lt\n      tag_62\n      jumpi\n      0x0100\n      dup1\n      dup4\n      sload\n      div\n      mul\n      dup4\n      mstore\n      swap2\n      0x20\n      add\n      swap2\n      jump(tag_61)\n    tag_62:\n      dup3\n      add\n      swap2\n      swap1\n      0x00\n      mstore\n      keccak256(0x00, 0x20)\n      swap1\n    tag_63:\n      dup2\n      sload\n      dup2\n      mstore\n      swap1\n      0x01\n      add\n      swap1\n      0x20\n      add\n      dup1\n      dup4\n      gt\n      tag_63\n      jumpi\n      dup3\n      swap1\n      sub\n      0x1f\n      and\n      dup3\n      add\n      swap2\n    tag_61:\n      pop\n      pop\n      pop\n      pop\n      pop\n      dup2\n      mstore\n      0x20\n      add\n      swap1\n      0x01\n      add\n      swap1\n      jump(tag_55)\n    tag_56:\n      pop\n      pop\n      pop\n      pop\n      swap1\n      pop\n        /* \"contracts/Auction.sol\":883:986  function getAuctions() public view returns (string[] memory) {... */\n      swap1\n      jump\t// out\n        /* \"contracts/Auction.sol\":994:1029  function bidding()public payable {} */\n    tag_44:\n      jump\t// out\n        /* \"contracts/Auction.sol\":426:875  function inititalize(string memory _auctionFor, uint256 deadline) public {... */\n    tag_49:\n        /* \"contracts/Auction.sol\":532:537  owner */\n      0x00\n      dup1\n      sload\n      swap1\n      0x0100\n      exp\n      swap1\n      div\n      0xffffffffffffffffffffffffffffffffffffffff\n      and\n        /* \"contracts/Auction.sol\":518:537  msg.sender == owner */\n      0xffffffffffffffffffffffffffffffffffffffff\n      and\n        /* \"contracts/Auction.sol\":518:528  msg.sender */\n      caller\n        /* \"contracts/Auction.sol\":518:537  msg.sender == owner */\n      0xffffffffffffffffffffffffffffffffffffffff\n      and\n      eq\n        /* \"contracts/Auction.sol\":510:579  require(msg.sender == owner, \"only owner can initialize the auction\") */\n      tag_66\n      jumpi\n      mload(0x40)\n      0x08c379a000000000000000000000000000000000000000000000000000000000\n      dup2\n      mstore\n      0x04\n      add\n      tag_67\n      swap1\n      tag_68\n      jump\t// in\n    tag_67:\n      mload(0x40)\n      dup1\n      swap2\n      sub\n      swap1\n      revert\n    tag_66:\n        /* \"contracts/Auction.sol\":623:638  block.timestamp */\n      timestamp\n        /* \"contracts/Auction.sol\":612:620  deadline */\n      dup2\n        /* \"contracts/Auction.sol\":612:638  deadline > block.timestamp */\n      gt\n        /* \"contracts/Auction.sol\":590:710  require(... */\n      tag_69\n      jumpi\n      mload(0x40)\n      0x08c379a000000000000000000000000000000000000000000000000000000000\n      dup2\n      mstore\n      0x04\n      add\n      tag_70\n      swap1\n      tag_71\n      jump\t// in\n    tag_70:\n      mload(0x40)\n      dup1\n      swap2\n      sub\n      swap1\n      revert\n    tag_69:\n        /* \"contracts/Auction.sol\":721:730  auctionOf */\n      0x04\n        /* \"contracts/Auction.sol\":721:742  auctionOf[msg.sender] */\n      0x00\n        /* \"contracts/Auction.sol\":731:741  msg.sender */\n      caller\n        /* \"contracts/Auction.sol\":721:742  auctionOf[msg.sender] */\n      0xffffffffffffffffffffffffffffffffffffffff\n      and\n      0xffffffffffffffffffffffffffffffffffffffff\n      and\n      dup2\n      mstore\n      0x20\n      add\n      swap1\n      dup2\n      mstore\n      0x20\n      add\n      0x00\n      keccak256\n        /* \"contracts/Auction.sol\":748:759  _auctionFor */\n      dup3\n        /* \"contracts/Auction.sol\":721:760  auctionOf[msg.sender].push(_auctionFor) */\n      swap1\n      dup1\n      0x01\n      dup2\n      sload\n      add\n      dup1\n      dup3\n      sstore\n      dup1\n      swap2\n      pop\n      pop\n      0x01\n      swap1\n      sub\n      swap1\n      0x00\n      mstore\n      keccak256(0x00, 0x20)\n      add\n      0x00\n      swap1\n      swap2\n      swap1\n      swap2\n      swap1\n      swap2\n      pop\n      swap1\n      dup2\n      tag_73\n      swap2\n      swap1\n      tag_74\n      jump\t// in\n    tag_73:\n      pop\n        /* \"contracts/Auction.sol\":803:818  block.timestamp */\n      timestamp\n        /* \"contracts/Auction.sol\":771:787  auctionStartTime */\n      0x02\n        /* \"contracts/Auction.sol\":788:799  _auctionFor */\n      dup4\n        /* \"contracts/Auction.sol\":771:800  auctionStartTime[_auctionFor] */\n      mload(0x40)\n      tag_75\n      swap2\n      swap1\n      tag_76\n      jump\t// in\n    tag_75:\n      swap1\n      dup2\n      mstore\n      0x20\n      add\n      mload(0x40)\n      dup1\n      swap2\n      sub\n      swap1\n      keccak256\n        /* \"contracts/Auction.sol\":771:818  auctionStartTime[_auctionFor] = block.timestamp */\n      dup2\n      swap1\n      sstore\n      pop\n        /* \"contracts/Auction.sol\":859:867  deadline */\n      dup1\n        /* \"contracts/Auction.sol\":829:843  auctionEndTime */\n      0x03\n        /* \"contracts/Auction.sol\":844:855  _auctionFor */\n      dup4\n        /* \"contracts/Auction.sol\":829:856  auctionEndTime[_auctionFor] */\n      mload(0x40)\n      tag_77\n      swap2\n      swap1\n      tag_76\n      jump\t// in\n    tag_77:\n      swap1\n      dup2\n      mstore\n      0x20\n      add\n      mload(0x40)\n      dup1\n      swap2\n      sub\n      swap1\n      keccak256\n        /* \"contracts/Auction.sol\":829:867  auctionEndTime[_auctionFor] = deadline */\n      dup2\n      swap1\n      sstore\n      pop\n        /* \"contracts/Auction.sol\":426:875  function inititalize(string memory _auctionFor, uint256 deadline) public {... */\n      pop\n      pop\n      jump\t// out\n        /* \"contracts/Auction.sol\":1037:1067  function endAuction()public {} */\n    tag_52:\n      jump\t// out\n        /* \"#utility.yul\":7:82   */\n    tag_79:\n        /* \"#utility.yul\":40:46   */\n      0x00\n        /* \"#utility.yul\":73:75   */\n      0x40\n        /* \"#utility.yul\":67:76   */\n      mload\n        /* \"#utility.yul\":57:76   */\n      swap1\n      pop\n        /* \"#utility.yul\":7:82   */\n      swap1\n      jump\t// out\n        /* \"#utility.yul\":88:205   */\n    tag_80:\n        /* \"#utility.yul\":197:198   */\n      0x00\n        /* \"#utility.yul\":194:195   */\n      dup1\n        /* \"#utility.yul\":187:199   */\n      revert\n        /* \"#utility.yul\":211:328   */\n    tag_81:\n        /* \"#utility.yul\":320:321   */\n      0x00\n        /* \"#utility.yul\":317:318   */\n      dup1\n        /* \"#utility.yul\":310:322   */\n      revert\n        /* \"#utility.yul\":334:451   */\n    tag_82:\n        /* \"#utility.yul\":443:444   */\n      0x00\n        /* \"#utility.yul\":440:441   */\n      dup1\n        /* \"#utility.yul\":433:445   */\n      revert\n        /* \"#utility.yul\":457:574   */\n    tag_83:\n        /* \"#utility.yul\":566:567   */\n      0x00\n        /* \"#utility.yul\":563:564   */\n      dup1\n        /* \"#utility.yul\":556:568   */\n      revert\n        /* \"#utility.yul\":580:682   */\n    tag_84:\n        /* \"#utility.yul\":621:627   */\n      0x00\n        /* \"#utility.yul\":672:674   */\n      0x1f\n        /* \"#utility.yul\":668:675   */\n      not\n        /* \"#utility.yul\":663:665   */\n      0x1f\n        /* \"#utility.yul\":656:661   */\n      dup4\n        /* \"#utility.yul\":652:666   */\n      add\n        /* \"#utility.yul\":648:676   */\n      and\n        /* \"#utility.yul\":638:676   */\n      swap1\n      pop\n        /* \"#utility.yul\":580:682   */\n      swap2\n      swap1\n      pop\n      jump\t// out\n        /* \"#utility.yul\":688:868   */\n    tag_85:\n        /* \"#utility.yul\":736:813   */\n      0x4e487b7100000000000000000000000000000000000000000000000000000000\n        /* \"#utility.yul\":733:734   */\n      0x00\n        /* \"#utility.yul\":726:814   */\n      mstore\n        /* \"#utility.yul\":833:837   */\n      0x41\n        /* \"#utility.yul\":830:831   */\n      0x04\n        /* \"#utility.yul\":823:838   */\n      mstore\n        /* \"#utility.yul\":857:861   */\n      0x24\n        /* \"#utility.yul\":854:855   */\n      0x00\n        /* \"#utility.yul\":847:862   */\n      revert\n        /* \"#utility.yul\":874:1155   */\n    tag_86:\n        /* \"#utility.yul\":957:984   */\n      tag_143\n        /* \"#utility.yul\":979:983   */\n      dup3\n        /* \"#utility.yul\":957:984   */\n      tag_84\n      jump\t// in\n    tag_143:\n        /* \"#utility.yul\":949:955   */\n      dup2\n        /* \"#utility.yul\":945:985   */\n      add\n        /* \"#utility.yul\":1087:1093   */\n      dup2\n        /* \"#utility.yul\":1075:1085   */\n      dup2\n        /* \"#utility.yul\":1072:1094   */\n      lt\n        /* \"#utility.yul\":1051:1069   */\n      0xffffffffffffffff\n        /* \"#utility.yul\":1039:1049   */\n      dup3\n        /* \"#utility.yul\":1036:1070   */\n      gt\n        /* \"#utility.yul\":1033:1095   */\n      or\n        /* \"#utility.yul\":1030:1118   */\n      iszero\n      tag_144\n      jumpi\n        /* \"#utility.yul\":1098:1116   */\n      tag_145\n      tag_85\n      jump\t// in\n    tag_145:\n        /* \"#utility.yul\":1030:1118   */\n    tag_144:\n        /* \"#utility.yul\":1138:1148   */\n      dup1\n        /* \"#utility.yul\":1134:1136   */\n      0x40\n        /* \"#utility.yul\":1127:1149   */\n      mstore\n        /* \"#utility.yul\":917:1155   */\n      pop\n        /* \"#utility.yul\":874:1155   */\n      pop\n      pop\n      jump\t// out\n        /* \"#utility.yul\":1161:1290   */\n    tag_87:\n        /* \"#utility.yul\":1195:1201   */\n      0x00\n        /* \"#utility.yul\":1222:1242   */\n      tag_147\n      tag_79\n      jump\t// in\n    tag_147:\n        /* \"#utility.yul\":1212:1242   */\n      swap1\n      pop\n        /* \"#utility.yul\":1251:1284   */\n      tag_148\n        /* \"#utility.yul\":1279:1283   */\n      dup3\n        /* \"#utility.yul\":1271:1277   */\n      dup3\n        /* \"#utility.yul\":1251:1284   */\n      tag_86\n      jump\t// in\n    tag_148:\n        /* \"#utility.yul\":1161:1290   */\n      swap2\n      swap1\n      pop\n      jump\t// out\n        /* \"#utility.yul\":1296:1604   */\n    tag_88:\n        /* \"#utility.yul\":1358:1362   */\n      0x00\n        /* \"#utility.yul\":1448:1466   */\n      0xffffffffffffffff\n        /* \"#utility.yul\":1440:1446   */\n      dup3\n        /* \"#utility.yul\":1437:1467   */\n      gt\n        /* \"#utility.yul\":1434:1490   */\n      iszero\n      tag_150\n      jumpi\n        /* \"#utility.yul\":1470:1488   */\n      tag_151\n      tag_85\n      jump\t// in\n    tag_151:\n        /* \"#utility.yul\":1434:1490   */\n    tag_150:\n        /* \"#utility.yul\":1508:1537   */\n      tag_152\n        /* \"#utility.yul\":1530:1536   */\n      dup3\n        /* \"#utility.yul\":1508:1537   */\n      tag_84\n      jump\t// in\n    tag_152:\n        /* \"#utility.yul\":1500:1537   */\n      swap1\n      pop\n        /* \"#utility.yul\":1592:1596   */\n      0x20\n        /* \"#utility.yul\":1586:1590   */\n      dup2\n        /* \"#utility.yul\":1582:1597   */\n      add\n        /* \"#utility.yul\":1574:1597   */\n      swap1\n      pop\n        /* \"#utility.yul\":1296:1604   */\n      swap2\n      swap1\n      pop\n      jump\t// out\n        /* \"#utility.yul\":1610:1756   */\n    tag_89:\n        /* \"#utility.yul\":1707:1713   */\n      dup3\n        /* \"#utility.yul\":1702:1705   */\n      dup2\n        /* \"#utility.yul\":1697:1700   */\n      dup4\n        /* \"#utility.yul\":1684:1714   */\n      calldatacopy\n        /* \"#utility.yul\":1748:1749   */\n      0x00\n        /* \"#utility.yul\":1739:1745   */\n      dup4\n        /* \"#utility.yul\":1734:1737   */\n      dup4\n        /* \"#utility.yul\":1730:1746   */\n      add\n        /* \"#utility.yul\":1723:1750   */\n      mstore\n        /* \"#utility.yul\":1610:1756   */\n      pop\n      pop\n      pop\n      jump\t// out\n        /* \"#utility.yul\":1762:2187   */\n    tag_90:\n        /* \"#utility.yul\":1840:1845   */\n      0x00\n        /* \"#utility.yul\":1865:1931   */\n      tag_155\n        /* \"#utility.yul\":1881:1930   */\n      tag_156\n        /* \"#utility.yul\":1923:1929   */\n      dup5\n        /* \"#utility.yul\":1881:1930   */\n      tag_88\n      jump\t// in\n    tag_156:\n        /* \"#utility.yul\":1865:1931   */\n      tag_87\n      jump\t// in\n    tag_155:\n        /* \"#utility.yul\":1856:1931   */\n      swap1\n      pop\n        /* \"#utility.yul\":1954:1960   */\n      dup3\n        /* \"#utility.yul\":1947:1952   */\n      dup2\n        /* \"#utility.yul\":1940:1961   */\n      mstore\n        /* \"#utility.yul\":1992:1996   */\n      0x20\n        /* \"#utility.yul\":1985:1990   */\n      dup2\n        /* \"#utility.yul\":1981:1997   */\n      add\n        /* \"#utility.yul\":2030:2033   */\n      dup5\n        /* \"#utility.yul\":2021:2027   */\n      dup5\n        /* \"#utility.yul\":2016:2019   */\n      dup5\n        /* \"#utility.yul\":2012:2028   */\n      add\n        /* \"#utility.yul\":2009:2034   */\n      gt\n        /* \"#utility.yul\":2006:2118   */\n      iszero\n      tag_157\n      jumpi\n        /* \"#utility.yul\":2037:2116   */\n      tag_158\n      tag_83\n      jump\t// in\n    tag_158:\n        /* \"#utility.yul\":2006:2118   */\n    tag_157:\n        /* \"#utility.yul\":2127:2181   */\n      tag_159\n        /* \"#utility.yul\":2174:2180   */\n      dup5\n        /* \"#utility.yul\":2169:2172   */\n      dup3\n        /* \"#utility.yul\":2164:2167   */\n      dup6\n        /* \"#utility.yul\":2127:2181   */\n      tag_89\n      jump\t// in\n    tag_159:\n        /* \"#utility.yul\":1846:2187   */\n      pop\n        /* \"#utility.yul\":1762:2187   */\n      swap4\n      swap3\n      pop\n      pop\n      pop\n      jump\t// out\n        /* \"#utility.yul\":2207:2547   */\n    tag_91:\n        /* \"#utility.yul\":2263:2268   */\n      0x00\n        /* \"#utility.yul\":2312:2315   */\n      dup3\n        /* \"#utility.yul\":2305:2309   */\n      0x1f\n        /* \"#utility.yul\":2297:2303   */\n      dup4\n        /* \"#utility.yul\":2293:2310   */\n      add\n        /* \"#utility.yul\":2289:2316   */\n      slt\n        /* \"#utility.yul\":2279:2401   */\n      tag_161\n      jumpi\n        /* \"#utility.yul\":2320:2399   */\n      tag_162\n      tag_82\n      jump\t// in\n    tag_162:\n        /* \"#utility.yul\":2279:2401   */\n    tag_161:\n        /* \"#utility.yul\":2437:2443   */\n      dup2\n        /* \"#utility.yul\":2424:2444   */\n      calldataload\n        /* \"#utility.yul\":2462:2541   */\n      tag_163\n        /* \"#utility.yul\":2537:2540   */\n      dup5\n        /* \"#utility.yul\":2529:2535   */\n      dup3\n        /* \"#utility.yul\":2522:2526   */\n      0x20\n        /* \"#utility.yul\":2514:2520   */\n      dup7\n        /* \"#utility.yul\":2510:2527   */\n      add\n        /* \"#utility.yul\":2462:2541   */\n      tag_90\n      jump\t// in\n    tag_163:\n        /* \"#utility.yul\":2453:2541   */\n      swap2\n      pop\n        /* \"#utility.yul\":2269:2547   */\n      pop\n        /* \"#utility.yul\":2207:2547   */\n      swap3\n      swap2\n      pop\n      pop\n      jump\t// out\n        /* \"#utility.yul\":2553:3062   */\n    tag_15:\n        /* \"#utility.yul\":2622:2628   */\n      0x00\n        /* \"#utility.yul\":2671:2673   */\n      0x20\n        /* \"#utility.yul\":2659:2668   */\n      dup3\n        /* \"#utility.yul\":2650:2657   */\n      dup5\n        /* \"#utility.yul\":2646:2669   */\n      sub\n        /* \"#utility.yul\":2642:2674   */\n      slt\n        /* \"#utility.yul\":2639:2758   */\n      iszero\n      tag_165\n      jumpi\n        /* \"#utility.yul\":2677:2756   */\n      tag_166\n      tag_80\n      jump\t// in\n    tag_166:\n        /* \"#utility.yul\":2639:2758   */\n    tag_165:\n        /* \"#utility.yul\":2825:2826   */\n      0x00\n        /* \"#utility.yul\":2814:2823   */\n      dup3\n        /* \"#utility.yul\":2810:2827   */\n      add\n        /* \"#utility.yul\":2797:2828   */\n      calldataload\n        /* \"#utility.yul\":2855:2873   */\n      0xffffffffffffffff\n        /* \"#utility.yul\":2847:2853   */\n      dup2\n        /* \"#utility.yul\":2844:2874   */\n      gt\n        /* \"#utility.yul\":2841:2958   */\n      iszero\n      tag_167\n      jumpi\n        /* \"#utility.yul\":2877:2956   */\n      tag_168\n      tag_81\n      jump\t// in\n    tag_168:\n        /* \"#utility.yul\":2841:2958   */\n    tag_167:\n        /* \"#utility.yul\":2982:3045   */\n      tag_169\n        /* \"#utility.yul\":3037:3044   */\n      dup5\n        /* \"#utility.yul\":3028:3034   */\n      dup3\n        /* \"#utility.yul\":3017:3026   */\n      dup6\n        /* \"#utility.yul\":3013:3035   */\n      add\n        /* \"#utility.yul\":2982:3045   */\n      tag_91\n      jump\t// in\n    tag_169:\n        /* \"#utility.yul\":2972:3045   */\n      swap2\n      pop\n        /* \"#utility.yul\":2768:3055   */\n      pop\n        /* \"#utility.yul\":2553:3062   */\n      swap3\n      swap2\n      pop\n      pop\n      jump\t// out\n        /* \"#utility.yul\":3068:3145   */\n    tag_92:\n        /* \"#utility.yul\":3105:3112   */\n      0x00\n        /* \"#utility.yul\":3134:3139   */\n      dup2\n        /* \"#utility.yul\":3123:3139   */\n      swap1\n      pop\n        /* \"#utility.yul\":3068:3145   */\n      swap2\n      swap1\n      pop\n      jump\t// out\n        /* \"#utility.yul\":3151:3269   */\n    tag_93:\n        /* \"#utility.yul\":3238:3262   */\n      tag_172\n        /* \"#utility.yul\":3256:3261   */\n      dup2\n        /* \"#utility.yul\":3238:3262   */\n      tag_92\n      jump\t// in\n    tag_172:\n        /* \"#utility.yul\":3233:3236   */\n      dup3\n        /* \"#utility.yul\":3226:3263   */\n      mstore\n        /* \"#utility.yul\":3151:3269   */\n      pop\n      pop\n      jump\t// out\n        /* \"#utility.yul\":3275:3497   */\n    tag_18:\n        /* \"#utility.yul\":3368:3372   */\n      0x00\n        /* \"#utility.yul\":3406:3408   */\n      0x20\n        /* \"#utility.yul\":3395:3404   */\n      dup3\n        /* \"#utility.yul\":3391:3409   */\n      add\n        /* \"#utility.yul\":3383:3409   */\n      swap1\n      pop\n        /* \"#utility.yul\":3419:3490   */\n      tag_174\n        /* \"#utility.yul\":3487:3488   */\n      0x00\n        /* \"#utility.yul\":3476:3485   */\n      dup4\n        /* \"#utility.yul\":3472:3489   */\n      add\n        /* \"#utility.yul\":3463:3469   */\n      dup5\n        /* \"#utility.yul\":3419:3490   */\n      tag_93\n      jump\t// in\n    tag_174:\n        /* \"#utility.yul\":3275:3497   */\n      swap3\n      swap2\n      pop\n      pop\n      jump\t// out\n        /* \"#utility.yul\":3503:3629   */\n    tag_94:\n        /* \"#utility.yul\":3540:3547   */\n      0x00\n        /* \"#utility.yul\":3580:3622   */\n      0xffffffffffffffffffffffffffffffffffffffff\n        /* \"#utility.yul\":3573:3578   */\n      dup3\n        /* \"#utility.yul\":3569:3623   */\n      and\n        /* \"#utility.yul\":3558:3623   */\n      swap1\n      pop\n        /* \"#utility.yul\":3503:3629   */\n      swap2\n      swap1\n      pop\n      jump\t// out\n        /* \"#utility.yul\":3635:3731   */\n    tag_95:\n        /* \"#utility.yul\":3672:3679   */\n      0x00\n        /* \"#utility.yul\":3701:3725   */\n      tag_177\n        /* \"#utility.yul\":3719:3724   */\n      dup3\n        /* \"#utility.yul\":3701:3725   */\n      tag_94\n      jump\t// in\n    tag_177:\n        /* \"#utility.yul\":3690:3725   */\n      swap1\n      pop\n        /* \"#utility.yul\":3635:3731   */\n      swap2\n      swap1\n      pop\n      jump\t// out\n        /* \"#utility.yul\":3737:3859   */\n    tag_96:\n        /* \"#utility.yul\":3810:3834   */\n      tag_179\n        /* \"#utility.yul\":3828:3833   */\n      dup2\n        /* \"#utility.yul\":3810:3834   */\n      tag_95\n      jump\t// in\n    tag_179:\n        /* \"#utility.yul\":3803:3808   */\n      dup2\n        /* \"#utility.yul\":3800:3835   */\n      eq\n        /* \"#utility.yul\":3790:3853   */\n      tag_180\n      jumpi\n        /* \"#utility.yul\":3849:3850   */\n      0x00\n        /* \"#utility.yul\":3846:3847   */\n      dup1\n        /* \"#utility.yul\":3839:3851   */\n      revert\n        /* \"#utility.yul\":3790:3853   */\n    tag_180:\n        /* \"#utility.yul\":3737:3859   */\n      pop\n      jump\t// out\n        /* \"#utility.yul\":3865:4004   */\n    tag_97:\n        /* \"#utility.yul\":3911:3916   */\n      0x00\n        /* \"#utility.yul\":3949:3955   */\n      dup2\n        /* \"#utility.yul\":3936:3956   */\n      calldataload\n        /* \"#utility.yul\":3927:3956   */\n      swap1\n      pop\n        /* \"#utility.yul\":3965:3998   */\n      tag_182\n        /* \"#utility.yul\":3992:3997   */\n      dup2\n        /* \"#utility.yul\":3965:3998   */\n      tag_96\n      jump\t// in\n    tag_182:\n        /* \"#utility.yul\":3865:4004   */\n      swap3\n      swap2\n      pop\n      pop\n      jump\t// out\n        /* \"#utility.yul\":4010:4339   */\n    tag_27:\n        /* \"#utility.yul\":4069:4075   */\n      0x00\n        /* \"#utility.yul\":4118:4120   */\n      0x20\n        /* \"#utility.yul\":4106:4115   */\n      dup3\n        /* \"#utility.yul\":4097:4104   */\n      dup5\n        /* \"#utility.yul\":4093:4116   */\n      sub\n        /* \"#utility.yul\":4089:4121   */\n      slt\n        /* \"#utility.yul\":4086:4205   */\n      iszero\n      tag_184\n      jumpi\n        /* \"#utility.yul\":4124:4203   */\n      tag_185\n      tag_80\n      jump\t// in\n    tag_185:\n        /* \"#utility.yul\":4086:4205   */\n    tag_184:\n        /* \"#utility.yul\":4244:4245   */\n      0x00\n        /* \"#utility.yul\":4269:4322   */\n      tag_186\n        /* \"#utility.yul\":4314:4321   */\n      dup5\n        /* \"#utility.yul\":4305:4311   */\n      dup3\n        /* \"#utility.yul\":4294:4303   */\n      dup6\n        /* \"#utility.yul\":4290:4312   */\n      add\n        /* \"#utility.yul\":4269:4322   */\n      tag_97\n      jump\t// in\n    tag_186:\n        /* \"#utility.yul\":4259:4322   */\n      swap2\n      pop\n        /* \"#utility.yul\":4215:4332   */\n      pop\n        /* \"#utility.yul\":4010:4339   */\n      swap3\n      swap2\n      pop\n      pop\n      jump\t// out\n        /* \"#utility.yul\":4345:4463   */\n    tag_98:\n        /* \"#utility.yul\":4432:4456   */\n      tag_188\n        /* \"#utility.yul\":4450:4455   */\n      dup2\n        /* \"#utility.yul\":4432:4456   */\n      tag_95\n      jump\t// in\n    tag_188:\n        /* \"#utility.yul\":4427:4430   */\n      dup3\n        /* \"#utility.yul\":4420:4457   */\n      mstore\n        /* \"#utility.yul\":4345:4463   */\n      pop\n      pop\n      jump\t// out\n        /* \"#utility.yul\":4469:4691   */\n    tag_34:\n        /* \"#utility.yul\":4562:4566   */\n      0x00\n        /* \"#utility.yul\":4600:4602   */\n      0x20\n        /* \"#utility.yul\":4589:4598   */\n      dup3\n        /* \"#utility.yul\":4585:4603   */\n      add\n        /* \"#utility.yul\":4577:4603   */\n      swap1\n      pop\n        /* \"#utility.yul\":4613:4684   */\n      tag_190\n        /* \"#utility.yul\":4681:4682   */\n      0x00\n        /* \"#utility.yul\":4670:4679   */\n      dup4\n        /* \"#utility.yul\":4666:4683   */\n      add\n        /* \"#utility.yul\":4657:4663   */\n      dup5\n        /* \"#utility.yul\":4613:4684   */\n      tag_98\n      jump\t// in\n    tag_190:\n        /* \"#utility.yul\":4469:4691   */\n      swap3\n      swap2\n      pop\n      pop\n      jump\t// out\n        /* \"#utility.yul\":4697:4821   */\n    tag_99:\n        /* \"#utility.yul\":4774:4780   */\n      0x00\n        /* \"#utility.yul\":4808:4813   */\n      dup2\n        /* \"#utility.yul\":4802:4814   */\n      mload\n        /* \"#utility.yul\":4792:4814   */\n      swap1\n      pop\n        /* \"#utility.yul\":4697:4821   */\n      swap2\n      swap1\n      pop\n      jump\t// out\n        /* \"#utility.yul\":4827:5021   */\n    tag_100:\n        /* \"#utility.yul\":4936:4947   */\n      0x00\n        /* \"#utility.yul\":4970:4976   */\n      dup3\n        /* \"#utility.yul\":4965:4968   */\n      dup3\n        /* \"#utility.yul\":4958:4977   */\n      mstore\n        /* \"#utility.yul\":5010:5014   */\n      0x20\n        /* \"#utility.yul\":5005:5008   */\n      dup3\n        /* \"#utility.yul\":5001:5015   */\n      add\n        /* \"#utility.yul\":4986:5015   */\n      swap1\n      pop\n        /* \"#utility.yul\":4827:5021   */\n      swap3\n      swap2\n      pop\n      pop\n      jump\t// out\n        /* \"#utility.yul\":5027:5169   */\n    tag_101:\n        /* \"#utility.yul\":5104:5108   */\n      0x00\n        /* \"#utility.yul\":5127:5130   */\n      dup2\n        /* \"#utility.yul\":5119:5130   */\n      swap1\n      pop\n        /* \"#utility.yul\":5157:5161   */\n      0x20\n        /* \"#utility.yul\":5152:5155   */\n      dup3\n        /* \"#utility.yul\":5148:5162   */\n      add\n        /* \"#utility.yul\":5140:5162   */\n      swap1\n      pop\n        /* \"#utility.yul\":5027:5169   */\n      swap2\n      swap1\n      pop\n      jump\t// out\n        /* \"#utility.yul\":5175:5274   */\n    tag_102:\n        /* \"#utility.yul\":5227:5233   */\n      0x00\n        /* \"#utility.yul\":5261:5266   */\n      dup2\n        /* \"#utility.yul\":5255:5267   */\n      mload\n        /* \"#utility.yul\":5245:5267   */\n      swap1\n      pop\n        /* \"#utility.yul\":5175:5274   */\n      swap2\n      swap1\n      pop\n      jump\t// out\n        /* \"#utility.yul\":5280:5439   */\n    tag_103:\n        /* \"#utility.yul\":5354:5365   */\n      0x00\n        /* \"#utility.yul\":5388:5394   */\n      dup3\n        /* \"#utility.yul\":5383:5386   */\n      dup3\n        /* \"#utility.yul\":5376:5395   */\n      mstore\n        /* \"#utility.yul\":5428:5432   */\n      0x20\n        /* \"#utility.yul\":5423:5426   */\n      dup3\n        /* \"#utility.yul\":5419:5433   */\n      add\n        /* \"#utility.yul\":5404:5433   */\n      swap1\n      pop\n        /* \"#utility.yul\":5280:5439   */\n      swap3\n      swap2\n      pop\n      pop\n      jump\t// out\n        /* \"#utility.yul\":5445:5691   */\n    tag_104:\n        /* \"#utility.yul\":5526:5527   */\n      0x00\n        /* \"#utility.yul\":5536:5649   */\n    tag_197:\n        /* \"#utility.yul\":5550:5556   */\n      dup4\n        /* \"#utility.yul\":5547:5548   */\n      dup2\n        /* \"#utility.yul\":5544:5557   */\n      lt\n        /* \"#utility.yul\":5536:5649   */\n      iszero\n      tag_199\n      jumpi\n        /* \"#utility.yul\":5635:5636   */\n      dup1\n        /* \"#utility.yul\":5630:5633   */\n      dup3\n        /* \"#utility.yul\":5626:5637   */\n      add\n        /* \"#utility.yul\":5620:5638   */\n      mload\n        /* \"#utility.yul\":5616:5617   */\n      dup2\n        /* \"#utility.yul\":5611:5614   */\n      dup5\n        /* \"#utility.yul\":5607:5618   */\n      add\n        /* \"#utility.yul\":5600:5639   */\n      mstore\n        /* \"#utility.yul\":5572:5574   */\n      0x20\n        /* \"#utility.yul\":5569:5570   */\n      dup2\n        /* \"#utility.yul\":5565:5575   */\n      add\n        /* \"#utility.yul\":5560:5575   */\n      swap1\n      pop\n        /* \"#utility.yul\":5536:5649   */\n      jump(tag_197)\n    tag_199:\n        /* \"#utility.yul\":5683:5684   */\n      0x00\n        /* \"#utility.yul\":5674:5680   */\n      dup5\n        /* \"#utility.yul\":5669:5672   */\n      dup5\n        /* \"#utility.yul\":5665:5681   */\n      add\n        /* \"#utility.yul\":5658:5685   */\n      mstore\n        /* \"#utility.yul\":5507:5691   */\n      pop\n        /* \"#utility.yul\":5445:5691   */\n      pop\n      pop\n      pop\n      jump\t// out\n        /* \"#utility.yul\":5697:6054   */\n    tag_105:\n        /* \"#utility.yul\":5775:5778   */\n      0x00\n        /* \"#utility.yul\":5803:5842   */\n      tag_201\n        /* \"#utility.yul\":5836:5841   */\n      dup3\n        /* \"#utility.yul\":5803:5842   */\n      tag_102\n      jump\t// in\n    tag_201:\n        /* \"#utility.yul\":5858:5919   */\n      tag_202\n        /* \"#utility.yul\":5912:5918   */\n      dup2\n        /* \"#utility.yul\":5907:5910   */\n      dup6\n        /* \"#utility.yul\":5858:5919   */\n      tag_103\n      jump\t// in\n    tag_202:\n        /* \"#utility.yul\":5851:5919   */\n      swap4\n      pop\n        /* \"#utility.yul\":5928:5993   */\n      tag_203\n        /* \"#utility.yul\":5986:5992   */\n      dup2\n        /* \"#utility.yul\":5981:5984   */\n      dup6\n        /* \"#utility.yul\":5974:5978   */\n      0x20\n        /* \"#utility.yul\":5967:5972   */\n      dup7\n        /* \"#utility.yul\":5963:5979   */\n      add\n        /* \"#utility.yul\":5928:5993   */\n      tag_104\n      jump\t// in\n    tag_203:\n        /* \"#utility.yul\":6018:6047   */\n      tag_204\n        /* \"#utility.yul\":6040:6046   */\n      dup2\n        /* \"#utility.yul\":6018:6047   */\n      tag_84\n      jump\t// in\n    tag_204:\n        /* \"#utility.yul\":6013:6016   */\n      dup5\n        /* \"#utility.yul\":6009:6048   */\n      add\n        /* \"#utility.yul\":6002:6048   */\n      swap2\n      pop\n        /* \"#utility.yul\":5779:6054   */\n      pop\n        /* \"#utility.yul\":5697:6054   */\n      swap3\n      swap2\n      pop\n      pop\n      jump\t// out\n        /* \"#utility.yul\":6060:6256   */\n    tag_106:\n        /* \"#utility.yul\":6149:6159   */\n      0x00\n        /* \"#utility.yul\":6184:6250   */\n      tag_206\n        /* \"#utility.yul\":6246:6249   */\n      dup4\n        /* \"#utility.yul\":6238:6244   */\n      dup4\n        /* \"#utility.yul\":6184:6250   */\n      tag_105\n      jump\t// in\n    tag_206:\n        /* \"#utility.yul\":6170:6250   */\n      swap1\n      pop\n        /* \"#utility.yul\":6060:6256   */\n      swap3\n      swap2\n      pop\n      pop\n      jump\t// out\n        /* \"#utility.yul\":6262:6385   */\n    tag_107:\n        /* \"#utility.yul\":6342:6346   */\n      0x00\n        /* \"#utility.yul\":6374:6378   */\n      0x20\n        /* \"#utility.yul\":6369:6372   */\n      dup3\n        /* \"#utility.yul\":6365:6379   */\n      add\n        /* \"#utility.yul\":6357:6379   */\n      swap1\n      pop\n        /* \"#utility.yul\":6262:6385   */\n      swap2\n      swap1\n      pop\n      jump\t// out\n        /* \"#utility.yul\":6419:7410   */\n    tag_108:\n        /* \"#utility.yul\":6558:6561   */\n      0x00\n        /* \"#utility.yul\":6587:6651   */\n      tag_209\n        /* \"#utility.yul\":6645:6650   */\n      dup3\n        /* \"#utility.yul\":6587:6651   */\n      tag_99\n      jump\t// in\n    tag_209:\n        /* \"#utility.yul\":6667:6763   */\n      tag_210\n        /* \"#utility.yul\":6756:6762   */\n      dup2\n        /* \"#utility.yul\":6751:6754   */\n      dup6\n        /* \"#utility.yul\":6667:6763   */\n      tag_100\n      jump\t// in\n    tag_210:\n        /* \"#utility.yul\":6660:6763   */\n      swap4\n      pop\n        /* \"#utility.yul\":6789:6792   */\n      dup4\n        /* \"#utility.yul\":6834:6838   */\n      0x20\n        /* \"#utility.yul\":6826:6832   */\n      dup3\n        /* \"#utility.yul\":6822:6839   */\n      mul\n        /* \"#utility.yul\":6817:6820   */\n      dup6\n        /* \"#utility.yul\":6813:6840   */\n      add\n        /* \"#utility.yul\":6864:6930   */\n      tag_211\n        /* \"#utility.yul\":6924:6929   */\n      dup6\n        /* \"#utility.yul\":6864:6930   */\n      tag_101\n      jump\t// in\n    tag_211:\n        /* \"#utility.yul\":6953:6960   */\n      dup1\n        /* \"#utility.yul\":6984:6985   */\n      0x00\n        /* \"#utility.yul\":6969:7365   */\n    tag_212:\n        /* \"#utility.yul\":6994:7000   */\n      dup6\n        /* \"#utility.yul\":6991:6992   */\n      dup2\n        /* \"#utility.yul\":6988:7001   */\n      lt\n        /* \"#utility.yul\":6969:7365   */\n      iszero\n      tag_214\n      jumpi\n        /* \"#utility.yul\":7065:7074   */\n      dup5\n        /* \"#utility.yul\":7059:7063   */\n      dup5\n        /* \"#utility.yul\":7055:7075   */\n      sub\n        /* \"#utility.yul\":7050:7053   */\n      dup10\n        /* \"#utility.yul\":7043:7076   */\n      mstore\n        /* \"#utility.yul\":7116:7122   */\n      dup2\n        /* \"#utility.yul\":7110:7123   */\n      mload\n        /* \"#utility.yul\":7144:7228   */\n      tag_215\n        /* \"#utility.yul\":7223:7227   */\n      dup6\n        /* \"#utility.yul\":7208:7221   */\n      dup3\n        /* \"#utility.yul\":7144:7228   */\n      tag_106\n      jump\t// in\n    tag_215:\n        /* \"#utility.yul\":7136:7228   */\n      swap5\n      pop\n        /* \"#utility.yul\":7251:7321   */\n      tag_216\n        /* \"#utility.yul\":7314:7320   */\n      dup4\n        /* \"#utility.yul\":7251:7321   */\n      tag_107\n      jump\t// in\n    tag_216:\n        /* \"#utility.yul\":7241:7321   */\n      swap3\n      pop\n        /* \"#utility.yul\":7350:7354   */\n      0x20\n        /* \"#utility.yul\":7345:7348   */\n      dup11\n        /* \"#utility.yul\":7341:7355   */\n      add\n        /* \"#utility.yul\":7334:7355   */\n      swap10\n      pop\n        /* \"#utility.yul\":7029:7365   */\n      pop\n        /* \"#utility.yul\":7016:7017   */\n      0x01\n        /* \"#utility.yul\":7013:7014   */\n      dup2\n        /* \"#utility.yul\":7009:7018   */\n      add\n        /* \"#utility.yul\":7004:7018   */\n      swap1\n      pop\n        /* \"#utility.yul\":6969:7365   */\n      jump(tag_212)\n    tag_214:\n        /* \"#utility.yul\":6973:6987   */\n      pop\n        /* \"#utility.yul\":7381:7385   */\n      dup3\n        /* \"#utility.yul\":7374:7385   */\n      swap8\n      pop\n        /* \"#utility.yul\":7401:7404   */\n      dup8\n        /* \"#utility.yul\":7394:7404   */\n      swap6\n      pop\n        /* \"#utility.yul\":6563:7410   */\n      pop\n      pop\n      pop\n      pop\n      pop\n        /* \"#utility.yul\":6419:7410   */\n      swap3\n      swap2\n      pop\n      pop\n      jump\t// out\n        /* \"#utility.yul\":7416:7829   */\n    tag_42:\n        /* \"#utility.yul\":7579:7583   */\n      0x00\n        /* \"#utility.yul\":7617:7619   */\n      0x20\n        /* \"#utility.yul\":7606:7615   */\n      dup3\n        /* \"#utility.yul\":7602:7620   */\n      add\n        /* \"#utility.yul\":7594:7620   */\n      swap1\n      pop\n        /* \"#utility.yul\":7666:7675   */\n      dup2\n        /* \"#utility.yul\":7660:7664   */\n      dup2\n        /* \"#utility.yul\":7656:7676   */\n      sub\n        /* \"#utility.yul\":7652:7653   */\n      0x00\n        /* \"#utility.yul\":7641:7650   */\n      dup4\n        /* \"#utility.yul\":7637:7654   */\n      add\n        /* \"#utility.yul\":7630:7677   */\n      mstore\n        /* \"#utility.yul\":7694:7822   */\n      tag_218\n        /* \"#utility.yul\":7817:7821   */\n      dup2\n        /* \"#utility.yul\":7808:7814   */\n      dup5\n        /* \"#utility.yul\":7694:7822   */\n      tag_108\n      jump\t// in\n    tag_218:\n        /* \"#utility.yul\":7686:7822   */\n      swap1\n      pop\n        /* \"#utility.yul\":7416:7829   */\n      swap3\n      swap2\n      pop\n      pop\n      jump\t// out\n        /* \"#utility.yul\":7835:7957   */\n    tag_109:\n        /* \"#utility.yul\":7908:7932   */\n      tag_220\n        /* \"#utility.yul\":7926:7931   */\n      dup2\n        /* \"#utility.yul\":7908:7932   */\n      tag_92\n      jump\t// in\n    tag_220:\n        /* \"#utility.yul\":7901:7906   */\n      dup2\n        /* \"#utility.yul\":7898:7933   */\n      eq\n        /* \"#utility.yul\":7888:7951   */\n      tag_221\n      jumpi\n        /* \"#utility.yul\":7947:7948   */\n      0x00\n        /* \"#utility.yul\":7944:7945   */\n      dup1\n        /* \"#utility.yul\":7937:7949   */\n      revert\n        /* \"#utility.yul\":7888:7951   */\n    tag_221:\n        /* \"#utility.yul\":7835:7957   */\n      pop\n      jump\t// out\n        /* \"#utility.yul\":7963:8102   */\n    tag_110:\n        /* \"#utility.yul\":8009:8014   */\n      0x00\n        /* \"#utility.yul\":8047:8053   */\n      dup2\n        /* \"#utility.yul\":8034:8054   */\n      calldataload\n        /* \"#utility.yul\":8025:8054   */\n      swap1\n      pop\n        /* \"#utility.yul\":8063:8096   */\n      tag_223\n        /* \"#utility.yul\":8090:8095   */\n      dup2\n        /* \"#utility.yul\":8063:8096   */\n      tag_109\n      jump\t// in\n    tag_223:\n        /* \"#utility.yul\":7963:8102   */\n      swap3\n      swap2\n      pop\n      pop\n      jump\t// out\n        /* \"#utility.yul\":8108:8762   */\n    tag_48:\n        /* \"#utility.yul\":8186:8192   */\n      0x00\n        /* \"#utility.yul\":8194:8200   */\n      dup1\n        /* \"#utility.yul\":8243:8245   */\n      0x40\n        /* \"#utility.yul\":8231:8240   */\n      dup4\n        /* \"#utility.yul\":8222:8229   */\n      dup6\n        /* \"#utility.yul\":8218:8241   */\n      sub\n        /* \"#utility.yul\":8214:8246   */\n      slt\n        /* \"#utility.yul\":8211:8330   */\n      iszero\n      tag_225\n      jumpi\n        /* \"#utility.yul\":8249:8328   */\n      tag_226\n      tag_80\n      jump\t// in\n    tag_226:\n        /* \"#utility.yul\":8211:8330   */\n    tag_225:\n        /* \"#utility.yul\":8397:8398   */\n      0x00\n        /* \"#utility.yul\":8386:8395   */\n      dup4\n        /* \"#utility.yul\":8382:8399   */\n      add\n        /* \"#utility.yul\":8369:8400   */\n      calldataload\n        /* \"#utility.yul\":8427:8445   */\n      0xffffffffffffffff\n        /* \"#utility.yul\":8419:8425   */\n      dup2\n        /* \"#utility.yul\":8416:8446   */\n      gt\n        /* \"#utility.yul\":8413:8530   */\n      iszero\n      tag_227\n      jumpi\n        /* \"#utility.yul\":8449:8528   */\n      tag_228\n      tag_81\n      jump\t// in\n    tag_228:\n        /* \"#utility.yul\":8413:8530   */\n    tag_227:\n        /* \"#utility.yul\":8554:8617   */\n      tag_229\n        /* \"#utility.yul\":8609:8616   */\n      dup6\n        /* \"#utility.yul\":8600:8606   */\n      dup3\n        /* \"#utility.yul\":8589:8598   */\n      dup7\n        /* \"#utility.yul\":8585:8607   */\n      add\n        /* \"#utility.yul\":8554:8617   */\n      tag_91\n      jump\t// in\n    tag_229:\n        /* \"#utility.yul\":8544:8617   */\n      swap3\n      pop\n        /* \"#utility.yul\":8340:8627   */\n      pop\n        /* \"#utility.yul\":8666:8668   */\n      0x20\n        /* \"#utility.yul\":8692:8745   */\n      tag_230\n        /* \"#utility.yul\":8737:8744   */\n      dup6\n        /* \"#utility.yul\":8728:8734   */\n      dup3\n        /* \"#utility.yul\":8717:8726   */\n      dup7\n        /* \"#utility.yul\":8713:8735   */\n      add\n        /* \"#utility.yul\":8692:8745   */\n      tag_110\n      jump\t// in\n    tag_230:\n        /* \"#utility.yul\":8682:8745   */\n      swap2\n      pop\n        /* \"#utility.yul\":8637:8755   */\n      pop\n        /* \"#utility.yul\":8108:8762   */\n      swap3\n      pop\n      swap3\n      swap1\n      pop\n      jump\t// out\n        /* \"#utility.yul\":8768:8948   */\n    tag_111:\n        /* \"#utility.yul\":8816:8893   */\n      0x4e487b7100000000000000000000000000000000000000000000000000000000\n        /* \"#utility.yul\":8813:8814   */\n      0x00\n        /* \"#utility.yul\":8806:8894   */\n      mstore\n        /* \"#utility.yul\":8913:8917   */\n      0x22\n        /* \"#utility.yul\":8910:8911   */\n      0x04\n        /* \"#utility.yul\":8903:8918   */\n      mstore\n        /* \"#utility.yul\":8937:8941   */\n      0x24\n        /* \"#utility.yul\":8934:8935   */\n      0x00\n        /* \"#utility.yul\":8927:8942   */\n      revert\n        /* \"#utility.yul\":8954:9274   */\n    tag_59:\n        /* \"#utility.yul\":8998:9004   */\n      0x00\n        /* \"#utility.yul\":9035:9036   */\n      0x02\n        /* \"#utility.yul\":9029:9033   */\n      dup3\n        /* \"#utility.yul\":9025:9037   */\n      div\n        /* \"#utility.yul\":9015:9037   */\n      swap1\n      pop\n        /* \"#utility.yul\":9082:9083   */\n      0x01\n        /* \"#utility.yul\":9076:9080   */\n      dup3\n        /* \"#utility.yul\":9072:9084   */\n      and\n        /* \"#utility.yul\":9103:9121   */\n      dup1\n        /* \"#utility.yul\":9093:9174   */\n      tag_233\n      jumpi\n        /* \"#utility.yul\":9159:9163   */\n      0x7f\n        /* \"#utility.yul\":9151:9157   */\n      dup3\n        /* \"#utility.yul\":9147:9164   */\n      and\n        /* \"#utility.yul\":9137:9164   */\n      swap2\n      pop\n        /* \"#utility.yul\":9093:9174   */\n    tag_233:\n        /* \"#utility.yul\":9221:9223   */\n      0x20\n        /* \"#utility.yul\":9213:9219   */\n      dup3\n        /* \"#utility.yul\":9210:9224   */\n      lt\n        /* \"#utility.yul\":9190:9208   */\n      dup2\n        /* \"#utility.yul\":9187:9225   */\n      sub\n        /* \"#utility.yul\":9184:9268   */\n      tag_234\n      jumpi\n        /* \"#utility.yul\":9240:9258   */\n      tag_235\n      tag_111\n      jump\t// in\n    tag_235:\n        /* \"#utility.yul\":9184:9268   */\n    tag_234:\n        /* \"#utility.yul\":9005:9274   */\n      pop\n        /* \"#utility.yul\":8954:9274   */\n      swap2\n      swap1\n      pop\n      jump\t// out\n        /* \"#utility.yul\":9280:9449   */\n    tag_112:\n        /* \"#utility.yul\":9364:9375   */\n      0x00\n        /* \"#utility.yul\":9398:9404   */\n      dup3\n        /* \"#utility.yul\":9393:9396   */\n      dup3\n        /* \"#utility.yul\":9386:9405   */\n      mstore\n        /* \"#utility.yul\":9438:9442   */\n      0x20\n        /* \"#utility.yul\":9433:9436   */\n      dup3\n        /* \"#utility.yul\":9429:9443   */\n      add\n        /* \"#utility.yul\":9414:9443   */\n      swap1\n      pop\n        /* \"#utility.yul\":9280:9449   */\n      swap3\n      swap2\n      pop\n      pop\n      jump\t// out\n        /* \"#utility.yul\":9455:9679   */\n    tag_113:\n        /* \"#utility.yul\":9595:9629   */\n      0x6f6e6c79206f776e65722063616e20696e697469616c697a6520746865206175\n        /* \"#utility.yul\":9591:9592   */\n      0x00\n        /* \"#utility.yul\":9583:9589   */\n      dup3\n        /* \"#utility.yul\":9579:9593   */\n      add\n        /* \"#utility.yul\":9572:9630   */\n      mstore\n        /* \"#utility.yul\":9664:9671   */\n      0x6374696f6e000000000000000000000000000000000000000000000000000000\n        /* \"#utility.yul\":9659:9661   */\n      0x20\n        /* \"#utility.yul\":9651:9657   */\n      dup3\n        /* \"#utility.yul\":9647:9662   */\n      add\n        /* \"#utility.yul\":9640:9672   */\n      mstore\n        /* \"#utility.yul\":9455:9679   */\n      pop\n      jump\t// out\n        /* \"#utility.yul\":9685:10051   */\n    tag_114:\n        /* \"#utility.yul\":9827:9830   */\n      0x00\n        /* \"#utility.yul\":9848:9915   */\n      tag_239\n        /* \"#utility.yul\":9912:9914   */\n      0x25\n        /* \"#utility.yul\":9907:9910   */\n      dup4\n        /* \"#utility.yul\":9848:9915   */\n      tag_112\n      jump\t// in\n    tag_239:\n        /* \"#utility.yul\":9841:9915   */\n      swap2\n      pop\n        /* \"#utility.yul\":9924:10017   */\n      tag_240\n        /* \"#utility.yul\":10013:10016   */\n      dup3\n        /* \"#utility.yul\":9924:10017   */\n      tag_113\n      jump\t// in\n    tag_240:\n        /* \"#utility.yul\":10042:10044   */\n      0x40\n        /* \"#utility.yul\":10037:10040   */\n      dup3\n        /* \"#utility.yul\":10033:10045   */\n      add\n        /* \"#utility.yul\":10026:10045   */\n      swap1\n      pop\n        /* \"#utility.yul\":9685:10051   */\n      swap2\n      swap1\n      pop\n      jump\t// out\n        /* \"#utility.yul\":10057:10476   */\n    tag_68:\n        /* \"#utility.yul\":10223:10227   */\n      0x00\n        /* \"#utility.yul\":10261:10263   */\n      0x20\n        /* \"#utility.yul\":10250:10259   */\n      dup3\n        /* \"#utility.yul\":10246:10264   */\n      add\n        /* \"#utility.yul\":10238:10264   */\n      swap1\n      pop\n        /* \"#utility.yul\":10310:10319   */\n      dup2\n        /* \"#utility.yul\":10304:10308   */\n      dup2\n        /* \"#utility.yul\":10300:10320   */\n      sub\n        /* \"#utility.yul\":10296:10297   */\n      0x00\n        /* \"#utility.yul\":10285:10294   */\n      dup4\n        /* \"#utility.yul\":10281:10298   */\n      add\n        /* \"#utility.yul\":10274:10321   */\n      mstore\n        /* \"#utility.yul\":10338:10469   */\n      tag_242\n        /* \"#utility.yul\":10464:10468   */\n      dup2\n        /* \"#utility.yul\":10338:10469   */\n      tag_114\n      jump\t// in\n    tag_242:\n        /* \"#utility.yul\":10330:10469   */\n      swap1\n      pop\n        /* \"#utility.yul\":10057:10476   */\n      swap2\n      swap1\n      pop\n      jump\t// out\n        /* \"#utility.yul\":10482:10713   */\n    tag_115:\n        /* \"#utility.yul\":10622:10656   */\n      0x446561646c696e652073686f756c642062652067726561746572207468656e20\n        /* \"#utility.yul\":10618:10619   */\n      0x00\n        /* \"#utility.yul\":10610:10616   */\n      dup3\n        /* \"#utility.yul\":10606:10620   */\n      add\n        /* \"#utility.yul\":10599:10657   */\n      mstore\n        /* \"#utility.yul\":10691:10705   */\n      0x63757272656e742074696d650000000000000000000000000000000000000000\n        /* \"#utility.yul\":10686:10688   */\n      0x20\n        /* \"#utility.yul\":10678:10684   */\n      dup3\n        /* \"#utility.yul\":10674:10689   */\n      add\n        /* \"#utility.yul\":10667:10706   */\n      mstore\n        /* \"#utility.yul\":10482:10713   */\n      pop\n      jump\t// out\n        /* \"#utility.yul\":10719:11085   */\n    tag_116:\n        /* \"#utility.yul\":10861:10864   */\n      0x00\n        /* \"#utility.yul\":10882:10949   */\n      tag_245\n        /* \"#utility.yul\":10946:10948   */\n      0x2c\n        /* \"#utility.yul\":10941:10944   */\n      dup4\n        /* \"#utility.yul\":10882:10949   */\n      tag_112\n      jump\t// in\n    tag_245:\n        /* \"#utility.yul\":10875:10949   */\n      swap2\n      pop\n        /* \"#utility.yul\":10958:11051   */\n      tag_246\n        /* \"#utility.yul\":11047:11050   */\n      dup3\n        /* \"#utility.yul\":10958:11051   */\n      tag_115\n      jump\t// in\n    tag_246:\n        /* \"#utility.yul\":11076:11078   */\n      0x40\n        /* \"#utility.yul\":11071:11074   */\n      dup3\n        /* \"#utility.yul\":11067:11079   */\n      add\n        /* \"#utility.yul\":11060:11079   */\n      swap1\n      pop\n        /* \"#utility.yul\":10719:11085   */\n      swap2\n      swap1\n      pop\n      jump\t// out\n        /* \"#utility.yul\":11091:11510   */\n    tag_71:\n        /* \"#utility.yul\":11257:11261   */\n      0x00\n        /* \"#utility.yul\":11295:11297   */\n      0x20\n        /* \"#utility.yul\":11284:11293   */\n      dup3\n        /* \"#utility.yul\":11280:11298   */\n      add\n        /* \"#utility.yul\":11272:11298   */\n      swap1\n      pop\n        /* \"#utility.yul\":11344:11353   */\n      dup2\n        /* \"#utility.yul\":11338:11342   */\n      dup2\n        /* \"#utility.yul\":11334:11354   */\n      sub\n        /* \"#utility.yul\":11330:11331   */\n      0x00\n        /* \"#utility.yul\":11319:11328   */\n      dup4\n        /* \"#utility.yul\":11315:11332   */\n      add\n        /* \"#utility.yul\":11308:11355   */\n      mstore\n        /* \"#utility.yul\":11372:11503   */\n      tag_248\n        /* \"#utility.yul\":11498:11502   */\n      dup2\n        /* \"#utility.yul\":11372:11503   */\n      tag_116\n      jump\t// in\n    tag_248:\n        /* \"#utility.yul\":11364:11503   */\n      swap1\n      pop\n        /* \"#utility.yul\":11091:11510   */\n      swap2\n      swap1\n      pop\n      jump\t// out\n        /* \"#utility.yul\":11516:11657   */\n    tag_117:\n        /* \"#utility.yul\":11565:11569   */\n      0x00\n        /* \"#utility.yul\":11588:11591   */\n      dup2\n        /* \"#utility.yul\":11580:11591   */\n      swap1\n      pop\n        /* \"#utility.yul\":11611:11614   */\n      dup2\n        /* \"#utility.yul\":11608:11609   */\n      0x00\n        /* \"#utility.yul\":11601:11615   */\n      mstore\n        /* \"#utility.yul\":11645:11649   */\n      0x20\n        /* \"#utility.yul\":11642:11643   */\n      0x00\n        /* \"#utility.yul\":11632:11650   */\n      keccak256\n        /* \"#utility.yul\":11624:11650   */\n      swap1\n      pop\n        /* \"#utility.yul\":11516:11657   */\n      swap2\n      swap1\n      pop\n      jump\t// out\n        /* \"#utility.yul\":11663:11756   */\n    tag_118:\n        /* \"#utility.yul\":11700:11706   */\n      0x00\n        /* \"#utility.yul\":11747:11749   */\n      0x20\n        /* \"#utility.yul\":11742:11744   */\n      0x1f\n        /* \"#utility.yul\":11735:11740   */\n      dup4\n        /* \"#utility.yul\":11731:11745   */\n      add\n        /* \"#utility.yul\":11727:11750   */\n      div\n        /* \"#utility.yul\":11717:11750   */\n      swap1\n      pop\n        /* \"#utility.yul\":11663:11756   */\n      swap2\n      swap1\n      pop\n      jump\t// out\n        /* \"#utility.yul\":11762:11869   */\n    tag_119:\n        /* \"#utility.yul\":11806:11814   */\n      0x00\n        /* \"#utility.yul\":11856:11861   */\n      dup3\n        /* \"#utility.yul\":11850:11854   */\n      dup3\n        /* \"#utility.yul\":11846:11862   */\n      shl\n        /* \"#utility.yul\":11825:11862   */\n      swap1\n      pop\n        /* \"#utility.yul\":11762:11869   */\n      swap3\n      swap2\n      pop\n      pop\n      jump\t// out\n        /* \"#utility.yul\":11875:12268   */\n    tag_120:\n        /* \"#utility.yul\":11944:11950   */\n      0x00\n        /* \"#utility.yul\":11994:11995   */\n      0x08\n        /* \"#utility.yul\":11982:11992   */\n      dup4\n        /* \"#utility.yul\":11978:11996   */\n      mul\n        /* \"#utility.yul\":12017:12114   */\n      tag_253\n        /* \"#utility.yul\":12047:12113   */\n      0xffffffffffffffffffffffffffffffffffffffffffffffffffffffffffffffff\n        /* \"#utility.yul\":12036:12045   */\n      dup3\n        /* \"#utility.yul\":12017:12114   */\n      tag_119\n      jump\t// in\n    tag_253:\n        /* \"#utility.yul\":12135:12174   */\n      tag_254\n        /* \"#utility.yul\":12165:12173   */\n      dup7\n        /* \"#utility.yul\":12154:12163   */\n      dup4\n        /* \"#utility.yul\":12135:12174   */\n      tag_119\n      jump\t// in\n    tag_254:\n        /* \"#utility.yul\":12123:12174   */\n      swap6\n      pop\n        /* \"#utility.yul\":12207:12211   */\n      dup1\n        /* \"#utility.yul\":12203:12212   */\n      not\n        /* \"#utility.yul\":12196:12201   */\n      dup5\n        /* \"#utility.yul\":12192:12213   */\n      and\n        /* \"#utility.yul\":12183:12213   */\n      swap4\n      pop\n        /* \"#utility.yul\":12256:12260   */\n      dup1\n        /* \"#utility.yul\":12246:12254   */\n      dup7\n        /* \"#utility.yul\":12242:12261   */\n      and\n        /* \"#utility.yul\":12235:12240   */\n      dup5\n        /* \"#utility.yul\":12232:12262   */\n      or\n        /* \"#utility.yul\":12222:12262   */\n      swap3\n      pop\n        /* \"#utility.yul\":11951:12268   */\n      pop\n      pop\n        /* \"#utility.yul\":11875:12268   */\n      swap4\n      swap3\n      pop\n      pop\n      pop\n      jump\t// out\n        /* \"#utility.yul\":12274:12334   */\n    tag_121:\n        /* \"#utility.yul\":12302:12305   */\n      0x00\n        /* \"#utility.yul\":12323:12328   */\n      dup2\n        /* \"#utility.yul\":12316:12328   */\n      swap1\n      pop\n        /* \"#utility.yul\":12274:12334   */\n      swap2\n      swap1\n      pop\n      jump\t// out\n        /* \"#utility.yul\":12340:12482   */\n    tag_122:\n        /* \"#utility.yul\":12390:12399   */\n      0x00\n        /* \"#utility.yul\":12423:12476   */\n      tag_257\n        /* \"#utility.yul\":12441:12475   */\n      tag_258\n        /* \"#utility.yul\":12450:12474   */\n      tag_259\n        /* \"#utility.yul\":12468:12473   */\n      dup5\n        /* \"#utility.yul\":12450:12474   */\n      tag_92\n      jump\t// in\n    tag_259:\n        /* \"#utility.yul\":12441:12475   */\n      tag_121\n      jump\t// in\n    tag_258:\n        /* \"#utility.yul\":12423:12476   */\n      tag_92\n      jump\t// in\n    tag_257:\n        /* \"#utility.yul\":12410:12476   */\n      swap1\n      pop\n        /* \"#utility.yul\":12340:12482   */\n      swap2\n      swap1\n      pop\n      jump\t// out\n        /* \"#utility.yul\":12488:12563   */\n    tag_123:\n        /* \"#utility.yul\":12531:12534   */\n      0x00\n        /* \"#utility.yul\":12552:12557   */\n      dup2\n        /* \"#utility.yul\":12545:12557   */\n      swap1\n      pop\n        /* \"#utility.yul\":12488:12563   */\n      swap2\n      swap1\n      pop\n      jump\t// out\n        /* \"#utility.yul\":12569:12838   */\n    tag_124:\n        /* \"#utility.yul\":12679:12718   */\n      tag_262\n        /* \"#utility.yul\":12710:12717   */\n      dup4\n        /* \"#utility.yul\":12679:12718   */\n      tag_122\n      jump\t// in\n    tag_262:\n        /* \"#utility.yul\":12740:12831   */\n      tag_263\n        /* \"#utility.yul\":12789:12830   */\n      tag_264\n        /* \"#utility.yul\":12813:12829   */\n      dup3\n        /* \"#utility.yul\":12789:12830   */\n      tag_123\n      jump\t// in\n    tag_264:\n        /* \"#utility.yul\":12781:12787   */\n      dup5\n        /* \"#utility.yul\":12774:12778   */\n      dup5\n        /* \"#utility.yul\":12768:12779   */\n      sload\n        /* \"#utility.yul\":12740:12831   */\n      tag_120\n      jump\t// in\n    tag_263:\n        /* \"#utility.yul\":12734:12738   */\n      dup3\n        /* \"#utility.yul\":12727:12832   */\n      sstore\n        /* \"#utility.yul\":12645:12838   */\n      pop\n        /* \"#utility.yul\":12569:12838   */\n      pop\n      pop\n      pop\n      jump\t// out\n        /* \"#utility.yul\":12844:12917   */\n    tag_125:\n        /* \"#utility.yul\":12889:12892   */\n      0x00\n        /* \"#utility.yul\":12844:12917   */\n      swap1\n      jump\t// out\n        /* \"#utility.yul\":12923:13112   */\n    tag_126:\n        /* \"#utility.yul\":13000:13032   */\n      tag_267\n      tag_125\n      jump\t// in\n    tag_267:\n        /* \"#utility.yul\":13041:13106   */\n      tag_268\n        /* \"#utility.yul\":13099:13105   */\n      dup2\n        /* \"#utility.yul\":13091:13097   */\n      dup5\n        /* \"#utility.yul\":13085:13089   */\n      dup5\n        /* \"#utility.yul\":13041:13106   */\n      tag_124\n      jump\t// in\n    tag_268:\n        /* \"#utility.yul\":12976:13112   */\n      pop\n        /* \"#utility.yul\":12923:13112   */\n      pop\n      pop\n      jump\t// out\n        /* \"#utility.yul\":13118:13304   */\n    tag_127:\n        /* \"#utility.yul\":13178:13298   */\n    tag_270:\n        /* \"#utility.yul\":13195:13198   */\n      dup2\n        /* \"#utility.yul\":13188:13193   */\n      dup2\n        /* \"#utility.yul\":13185:13199   */\n      lt\n        /* \"#utility.yul\":13178:13298   */\n      iszero\n      tag_272\n      jumpi\n        /* \"#utility.yul\":13249:13288   */\n      tag_273\n        /* \"#utility.yul\":13286:13287   */\n      0x00\n        /* \"#utility.yul\":13279:13284   */\n      dup3\n        /* \"#utility.yul\":13249:13288   */\n      tag_126\n      jump\t// in\n    tag_273:\n        /* \"#utility.yul\":13222:13223   */\n      0x01\n        /* \"#utility.yul\":13215:13220   */\n      dup2\n        /* \"#utility.yul\":13211:13224   */\n      add\n        /* \"#utility.yul\":13202:13224   */\n      swap1\n      pop\n        /* \"#utility.yul\":13178:13298   */\n      jump(tag_270)\n    tag_272:\n        /* \"#utility.yul\":13118:13304   */\n      pop\n      pop\n      jump\t// out\n        /* \"#utility.yul\":13310:13853   */\n    tag_128:\n        /* \"#utility.yul\":13411:13413   */\n      0x1f\n        /* \"#utility.yul\":13406:13409   */\n      dup3\n        /* \"#utility.yul\":13403:13414   */\n      gt\n        /* \"#utility.yul\":13400:13846   */\n      iszero\n      tag_275\n      jumpi\n        /* \"#utility.yul\":13445:13483   */\n      tag_276\n        /* \"#utility.yul\":13477:13482   */\n      dup2\n        /* \"#utility.yul\":13445:13483   */\n      tag_117\n      jump\t// in\n    tag_276:\n        /* \"#utility.yul\":13529:13558   */\n      tag_277\n        /* \"#utility.yul\":13547:13557   */\n      dup5\n        /* \"#utility.yul\":13529:13558   */\n      tag_118\n      jump\t// in\n    tag_277:\n        /* \"#utility.yul\":13519:13527   */\n      dup2\n        /* \"#utility.yul\":13515:13559   */\n      add\n        /* \"#utility.yul\":13712:13714   */\n      0x20\n        /* \"#utility.yul\":13700:13710   */\n      dup6\n        /* \"#utility.yul\":13697:13715   */\n      lt\n        /* \"#utility.yul\":13694:13743   */\n      iszero\n      tag_278\n      jumpi\n        /* \"#utility.yul\":13733:13741   */\n      dup2\n        /* \"#utility.yul\":13718:13741   */\n      swap1\n      pop\n        /* \"#utility.yul\":13694:13743   */\n    tag_278:\n        /* \"#utility.yul\":13756:13836   */\n      tag_279\n        /* \"#utility.yul\":13812:13834   */\n      tag_280\n        /* \"#utility.yul\":13830:13833   */\n      dup6\n        /* \"#utility.yul\":13812:13834   */\n      tag_118\n      jump\t// in\n    tag_280:\n        /* \"#utility.yul\":13802:13810   */\n      dup4\n        /* \"#utility.yul\":13798:13835   */\n      add\n        /* \"#utility.yul\":13785:13796   */\n      dup3\n        /* \"#utility.yul\":13756:13836   */\n      tag_127\n      jump\t// in\n    tag_279:\n        /* \"#utility.yul\":13415:13846   */\n      pop\n      pop\n        /* \"#utility.yul\":13400:13846   */\n    tag_275:\n        /* \"#utility.yul\":13310:13853   */\n      pop\n      pop\n      pop\n      jump\t// out\n        /* \"#utility.yul\":13859:13976   */\n    tag_129:\n        /* \"#utility.yul\":13913:13921   */\n      0x00\n        /* \"#utility.yul\":13963:13968   */\n      dup3\n        /* \"#utility.yul\":13957:13961   */\n      dup3\n        /* \"#utility.yul\":13953:13969   */\n      shr\n        /* \"#utility.yul\":13932:13969   */\n      swap1\n      pop\n        /* \"#utility.yul\":13859:13976   */\n      swap3\n      swap2\n      pop\n      pop\n      jump\t// out\n        /* \"#utility.yul\":13982:14151   */\n    tag_130:\n        /* \"#utility.yul\":14026:14032   */\n      0x00\n        /* \"#utility.yul\":14059:14110   */\n      tag_283\n        /* \"#utility.yul\":14107:14108   */\n      0x00\n        /* \"#utility.yul\":14103:14109   */\n      not\n        /* \"#utility.yul\":14095:14100   */\n      dup5\n        /* \"#utility.yul\":14092:14093   */\n      0x08\n        /* \"#utility.yul\":14088:14101   */\n      mul\n        /* \"#utility.yul\":14059:14110   */\n      tag_129\n      jump\t// in\n    tag_283:\n        /* \"#utility.yul\":14055:14111   */\n      not\n        /* \"#utility.yul\":14140:14144   */\n      dup1\n        /* \"#utility.yul\":14134:14138   */\n      dup4\n        /* \"#utility.yul\":14130:14145   */\n      and\n        /* \"#utility.yul\":14120:14145   */\n      swap2\n      pop\n        /* \"#utility.yul\":14033:14151   */\n      pop\n        /* \"#utility.yul\":13982:14151   */\n      swap3\n      swap2\n      pop\n      pop\n      jump\t// out\n        /* \"#utility.yul\":14156:14451   */\n    tag_131:\n        /* \"#utility.yul\":14232:14236   */\n      0x00\n        /* \"#utility.yul\":14378:14407   */\n      tag_285\n        /* \"#utility.yul\":14403:14406   */\n      dup4\n        /* \"#utility.yul\":14397:14401   */\n      dup4\n        /* \"#utility.yul\":14378:14407   */\n      tag_130\n      jump\t// in\n    tag_285:\n        /* \"#utility.yul\":14370:14407   */\n      swap2\n      pop\n        /* \"#utility.yul\":14440:14443   */\n      dup3\n        /* \"#utility.yul\":14437:14438   */\n      0x02\n        /* \"#utility.yul\":14433:14444   */\n      mul\n        /* \"#utility.yul\":14427:14431   */\n      dup3\n        /* \"#utility.yul\":14424:14445   */\n      or\n        /* \"#utility.yul\":14416:14445   */\n      swap1\n      pop\n        /* \"#utility.yul\":14156:14451   */\n      swap3\n      swap2\n      pop\n      pop\n      jump\t// out\n        /* \"#utility.yul\":14456:15851   */\n    tag_74:\n        /* \"#utility.yul\":14573:14610   */\n      tag_287\n        /* \"#utility.yul\":14606:14609   */\n      dup3\n        /* \"#utility.yul\":14573:14610   */\n      tag_102\n      jump\t// in\n    tag_287:\n        /* \"#utility.yul\":14675:14693   */\n      0xffffffffffffffff\n        /* \"#utility.yul\":14667:14673   */\n      dup2\n        /* \"#utility.yul\":14664:14694   */\n      gt\n        /* \"#utility.yul\":14661:14717   */\n      iszero\n      tag_288\n      jumpi\n        /* \"#utility.yul\":14697:14715   */\n      tag_289\n      tag_85\n      jump\t// in\n    tag_289:\n        /* \"#utility.yul\":14661:14717   */\n    tag_288:\n        /* \"#utility.yul\":14741:14779   */\n      tag_290\n        /* \"#utility.yul\":14773:14777   */\n      dup3\n        /* \"#utility.yul\":14767:14778   */\n      sload\n        /* \"#utility.yul\":14741:14779   */\n      tag_59\n      jump\t// in\n    tag_290:\n        /* \"#utility.yul\":14826:14893   */\n      tag_291\n        /* \"#utility.yul\":14886:14892   */\n      dup3\n        /* \"#utility.yul\":14878:14884   */\n      dup3\n        /* \"#utility.yul\":14872:14876   */\n      dup6\n        /* \"#utility.yul\":14826:14893   */\n      tag_128\n      jump\t// in\n    tag_291:\n        /* \"#utility.yul\":14920:14921   */\n      0x00\n        /* \"#utility.yul\":14944:14948   */\n      0x20\n        /* \"#utility.yul\":14931:14948   */\n      swap1\n      pop\n        /* \"#utility.yul\":14976:14978   */\n      0x1f\n        /* \"#utility.yul\":14968:14974   */\n      dup4\n        /* \"#utility.yul\":14965:14979   */\n      gt\n        /* \"#utility.yul\":14993:14994   */\n      0x01\n        /* \"#utility.yul\":14988:15606   */\n      dup2\n      eq\n      tag_293\n      jumpi\n        /* \"#utility.yul\":15650:15651   */\n      0x00\n        /* \"#utility.yul\":15667:15673   */\n      dup5\n        /* \"#utility.yul\":15664:15741   */\n      iszero\n      tag_294\n      jumpi\n        /* \"#utility.yul\":15716:15725   */\n      dup3\n        /* \"#utility.yul\":15711:15714   */\n      dup8\n        /* \"#utility.yul\":15707:15726   */\n      add\n        /* \"#utility.yul\":15701:15727   */\n      mload\n        /* \"#utility.yul\":15692:15727   */\n      swap1\n      pop\n        /* \"#utility.yul\":15664:15741   */\n    tag_294:\n        /* \"#utility.yul\":15767:15834   */\n      tag_295\n        /* \"#utility.yul\":15827:15833   */\n      dup6\n        /* \"#utility.yul\":15820:15825   */\n      dup3\n        /* \"#utility.yul\":15767:15834   */\n      tag_131\n      jump\t// in\n    tag_295:\n        /* \"#utility.yul\":15761:15765   */\n      dup7\n        /* \"#utility.yul\":15754:15835   */\n      sstore\n        /* \"#utility.yul\":15623:15845   */\n      pop\n        /* \"#utility.yul\":14958:15845   */\n      jump(tag_292)\n        /* \"#utility.yul\":14988:15606   */\n    tag_293:\n        /* \"#utility.yul\":15040:15044   */\n      0x1f\n        /* \"#utility.yul\":15036:15045   */\n      not\n        /* \"#utility.yul\":15028:15034   */\n      dup5\n        /* \"#utility.yul\":15024:15046   */\n      and\n        /* \"#utility.yul\":15074:15111   */\n      tag_296\n        /* \"#utility.yul\":15106:15110   */\n      dup7\n        /* \"#utility.yul\":15074:15111   */\n      tag_117\n      jump\t// in\n    tag_296:\n        /* \"#utility.yul\":15133:15134   */\n      0x00\n        /* \"#utility.yul\":15147:15355   */\n    tag_297:\n        /* \"#utility.yul\":15161:15168   */\n      dup3\n        /* \"#utility.yul\":15158:15159   */\n      dup2\n        /* \"#utility.yul\":15155:15169   */\n      lt\n        /* \"#utility.yul\":15147:15355   */\n      iszero\n      tag_299\n      jumpi\n        /* \"#utility.yul\":15240:15249   */\n      dup5\n        /* \"#utility.yul\":15235:15238   */\n      dup10\n        /* \"#utility.yul\":15231:15250   */\n      add\n        /* \"#utility.yul\":15225:15251   */\n      mload\n        /* \"#utility.yul\":15217:15223   */\n      dup3\n        /* \"#utility.yul\":15210:15252   */\n      sstore\n        /* \"#utility.yul\":15291:15292   */\n      0x01\n        /* \"#utility.yul\":15283:15289   */\n      dup3\n        /* \"#utility.yul\":15279:15293   */\n      add\n        /* \"#utility.yul\":15269:15293   */\n      swap2\n      pop\n        /* \"#utility.yul\":15338:15340   */\n      0x20\n        /* \"#utility.yul\":15327:15336   */\n      dup6\n        /* \"#utility.yul\":15323:15341   */\n      add\n        /* \"#utility.yul\":15310:15341   */\n      swap5\n      pop\n        /* \"#utility.yul\":15184:15188   */\n      0x20\n        /* \"#utility.yul\":15181:15182   */\n      dup2\n        /* \"#utility.yul\":15177:15189   */\n      add\n        /* \"#utility.yul\":15172:15189   */\n      swap1\n      pop\n        /* \"#utility.yul\":15147:15355   */\n      jump(tag_297)\n    tag_299:\n        /* \"#utility.yul\":15383:15389   */\n      dup7\n        /* \"#utility.yul\":15374:15381   */\n      dup4\n        /* \"#utility.yul\":15371:15390   */\n      lt\n        /* \"#utility.yul\":15368:15547   */\n      iszero\n      tag_300\n      jumpi\n        /* \"#utility.yul\":15441:15450   */\n      dup5\n        /* \"#utility.yul\":15436:15439   */\n      dup10\n        /* \"#utility.yul\":15432:15451   */\n      add\n        /* \"#utility.yul\":15426:15452   */\n      mload\n        /* \"#utility.yul\":15484:15532   */\n      tag_301\n        /* \"#utility.yul\":15526:15530   */\n      0x1f\n        /* \"#utility.yul\":15518:15524   */\n      dup10\n        /* \"#utility.yul\":15514:15531   */\n      and\n        /* \"#utility.yul\":15503:15512   */\n      dup3\n        /* \"#utility.yul\":15484:15532   */\n      tag_130\n      jump\t// in\n    tag_301:\n        /* \"#utility.yul\":15476:15482   */\n      dup4\n        /* \"#utility.yul\":15469:15533   */\n      sstore\n        /* \"#utility.yul\":15391:15547   */\n      pop\n        /* \"#utility.yul\":15368:15547   */\n    tag_300:\n        /* \"#utility.yul\":15593:15594   */\n      0x01\n        /* \"#utility.yul\":15589:15590   */\n      0x02\n        /* \"#utility.yul\":15581:15587   */\n      dup9\n        /* \"#utility.yul\":15577:15591   */\n      mul\n        /* \"#utility.yul\":15573:15595   */\n      add\n        /* \"#utility.yul\":15567:15571   */\n      dup9\n        /* \"#utility.yul\":15560:15596   */\n      sstore\n        /* \"#utility.yul\":14995:15606   */\n      pop\n      pop\n      pop\n        /* \"#utility.yul\":14958:15845   */\n    tag_292:\n      pop\n        /* \"#utility.yul\":14548:15851   */\n      pop\n      pop\n      pop\n        /* \"#utility.yul\":14456:15851   */\n      pop\n      pop\n      jump\t// out\n        /* \"#utility.yul\":15857:16005   */\n    tag_132:\n        /* \"#utility.yul\":15959:15970   */\n      0x00\n        /* \"#utility.yul\":15996:15999   */\n      dup2\n        /* \"#utility.yul\":15981:15999   */\n      swap1\n      pop\n        /* \"#utility.yul\":15857:16005   */\n      swap3\n      swap2\n      pop\n      pop\n      jump\t// out\n        /* \"#utility.yul\":16011:16401   */\n    tag_133:\n        /* \"#utility.yul\":16117:16120   */\n      0x00\n        /* \"#utility.yul\":16145:16184   */\n      tag_304\n        /* \"#utility.yul\":16178:16183   */\n      dup3\n        /* \"#utility.yul\":16145:16184   */\n      tag_102\n      jump\t// in\n    tag_304:\n        /* \"#utility.yul\":16200:16289   */\n      tag_305\n        /* \"#utility.yul\":16282:16288   */\n      dup2\n        /* \"#utility.yul\":16277:16280   */\n      dup6\n        /* \"#utility.yul\":16200:16289   */\n      tag_132\n      jump\t// in\n    tag_305:\n        /* \"#utility.yul\":16193:16289   */\n      swap4\n      pop\n        /* \"#utility.yul\":16298:16363   */\n      tag_306\n        /* \"#utility.yul\":16356:16362   */\n      dup2\n        /* \"#utility.yul\":16351:16354   */\n      dup6\n        /* \"#utility.yul\":16344:16348   */\n      0x20\n        /* \"#utility.yul\":16337:16342   */\n      dup7\n        /* \"#utility.yul\":16333:16349   */\n      add\n        /* \"#utility.yul\":16298:16363   */\n      tag_104\n      jump\t// in\n    tag_306:\n        /* \"#utility.yul\":16388:16394   */\n      dup1\n        /* \"#utility.yul\":16383:16386   */\n      dup5\n        /* \"#utility.yul\":16379:16395   */\n      add\n        /* \"#utility.yul\":16372:16395   */\n      swap2\n      pop\n        /* \"#utility.yul\":16121:16401   */\n      pop\n        /* \"#utility.yul\":16011:16401   */\n      swap3\n      swap2\n      pop\n      pop\n      jump\t// out\n        /* \"#utility.yul\":16407:16682   */\n    tag_76:\n        /* \"#utility.yul\":16539:16542   */\n      0x00\n        /* \"#utility.yul\":16561:16656   */\n      tag_308\n        /* \"#utility.yul\":16652:16655   */\n      dup3\n        /* \"#utility.yul\":16643:16649   */\n      dup5\n        /* \"#utility.yul\":16561:16656   */\n      tag_133\n      jump\t// in\n    tag_308:\n        /* \"#utility.yul\":16554:16656   */\n      swap2\n      pop\n        /* \"#utility.yul\":16673:16676   */\n      dup2\n        /* \"#utility.yul\":16666:16676   */\n      swap1\n      pop\n        /* \"#utility.yul\":16407:16682   */\n      swap3\n      swap2\n      pop\n      pop\n      jump\t// out\n\n    auxdata: 0xa2646970667358221220152af316de693dfbf073866160b270c981239f2071f92f0ccd74a08b0200d47964736f6c63430008110033\n}\n",
				"bytecode": {
					"linkReferences": {},
					"object": "608060405234801561001057600080fd5b50336000806101000a81548173ffffffffffffffffffffffffffffffffffffffff021916908373ffffffffffffffffffffffffffffffffffffffff160217905550610e6d806100606000396000f3fe6080604052600436106100865760003560e01c8063ab75207d11610059578063ab75207d1461016d578063d7c0691914610184578063db774c79146101af578063e6f1ce52146101b9578063fe67a54b146101e257610086565b8063099ef2f91461008b57806343279f12146100c85780634881b603146101055780638da5cb5b14610142575b600080fd5b34801561009757600080fd5b506100b260048036038101906100ad91906106b4565b6101f9565b6040516100bf9190610716565b60405180910390f35b3480156100d457600080fd5b506100ef60048036038101906100ea91906106b4565b610227565b6040516100fc9190610716565b60405180910390f35b34801561011157600080fd5b5061012c6004803603810190610127919061078f565b610255565b6040516101399190610716565b60405180910390f35b34801561014e57600080fd5b5061015761026d565b60405161016491906107cb565b60405180910390f35b34801561017957600080fd5b50610182610291565b005b34801561019057600080fd5b50610199610293565b6040516101a69190610927565b60405180910390f35b6101b76103ca565b005b3480156101c557600080fd5b506101e060048036038101906101db9190610975565b6103cc565b005b3480156101ee57600080fd5b506101f7610558565b005b6003818051602081018201805184825260208301602085012081835280955050505050506000915090505481565b6002818051602081018201805184825260208301602085012081835280955050505050506000915090505481565b60016020528060005260406000206000915090505481565b60008054906101000a900473ffffffffffffffffffffffffffffffffffffffff1681565b565b6060600460008060009054906101000a900473ffffffffffffffffffffffffffffffffffffffff1673ffffffffffffffffffffffffffffffffffffffff1673ffffffffffffffffffffffffffffffffffffffff168152602001908152602001600020805480602002602001604051908101604052809291908181526020016000905b828210156103c157838290600052602060002001805461033490610a00565b80601f016020809104026020016040519081016040528092919081815260200182805461036090610a00565b80156103ad5780601f10610382576101008083540402835291602001916103ad565b820191906000526020600020905b81548152906001019060200180831161039057829003601f168201915b505050505081526020019060010190610315565b50505050905090565b565b60008054906101000a900473ffffffffffffffffffffffffffffffffffffffff1673ffffffffffffffffffffffffffffffffffffffff163373ffffffffffffffffffffffffffffffffffffffff161461045a576040517f08c379a000000000000000000000000000000000000000000000000000000000815260040161045190610ab4565b60405180910390fd5b42811161049c576040517f08c379a000000000000000000000000000000000000000000000000000000000815260040161049390610b46565b60405180910390fd5b600460003373ffffffffffffffffffffffffffffffffffffffff1673ffffffffffffffffffffffffffffffffffffffff1681526020019081526020016000208290806001815401808255809150506001900390600052602060002001600090919091909150908161050d9190610d12565b504260028360405161051f9190610e20565b908152602001604051809103902081905550806003836040516105429190610e20565b9081526020016040518091039020819055505050565b565b6000604051905090565b600080fd5b600080fd5b600080fd5b600080fd5b6000601f19601f8301169050919050565b7f4e487b7100000000000000000000000000000000000000000000000000000000600052604160045260246000fd5b6105c182610578565b810181811067ffffffffffffffff821117156105e0576105df610589565b5b80604052505050565b60006105f361055a565b90506105ff82826105b8565b919050565b600067ffffffffffffffff82111561061f5761061e610589565b5b61062882610578565b9050602081019050919050565b82818337600083830152505050565b600061065761065284610604565b6105e9565b90508281526020810184848401111561067357610672610573565b5b61067e848285610635565b509392505050565b600082601f83011261069b5761069a61056e565b5b81356106ab848260208601610644565b91505092915050565b6000602082840312156106ca576106c9610564565b5b600082013567ffffffffffffffff8111156106e8576106e7610569565b5b6106f484828501610686565b91505092915050565b6000819050919050565b610710816106fd565b82525050565b600060208201905061072b6000830184610707565b92915050565b600073ffffffffffffffffffffffffffffffffffffffff82169050919050565b600061075c82610731565b9050919050565b61076c81610751565b811461077757600080fd5b50565b60008135905061078981610763565b92915050565b6000602082840312156107a5576107a4610564565b5b60006107b38482850161077a565b91505092915050565b6107c581610751565b82525050565b60006020820190506107e060008301846107bc565b92915050565b600081519050919050565b600082825260208201905092915050565b6000819050602082019050919050565b600081519050919050565b600082825260208201905092915050565b60005b8381101561084c578082015181840152602081019050610831565b60008484015250505050565b600061086382610812565b61086d818561081d565b935061087d81856020860161082e565b61088681610578565b840191505092915050565b600061089d8383610858565b905092915050565b6000602082019050919050565b60006108bd826107e6565b6108c781856107f1565b9350836020820285016108d985610802565b8060005b8581101561091557848403895281516108f68582610891565b9450610901836108a5565b925060208a019950506001810190506108dd565b50829750879550505050505092915050565b6000602082019050818103600083015261094181846108b2565b905092915050565b610952816106fd565b811461095d57600080fd5b50565b60008135905061096f81610949565b92915050565b6000806040838503121561098c5761098b610564565b5b600083013567ffffffffffffffff8111156109aa576109a9610569565b5b6109b685828601610686565b92505060206109c785828601610960565b9150509250929050565b7f4e487b7100000000000000000000000000000000000000000000000000000000600052602260045260246000fd5b60006002820490506001821680610a1857607f821691505b602082108103610a2b57610a2a6109d1565b5b50919050565b600082825260208201905092915050565b7f6f6e6c79206f776e65722063616e20696e697469616c697a652074686520617560008201527f6374696f6e000000000000000000000000000000000000000000000000000000602082015250565b6000610a9e602583610a31565b9150610aa982610a42565b604082019050919050565b60006020820190508181036000830152610acd81610a91565b9050919050565b7f446561646c696e652073686f756c642062652067726561746572207468656e2060008201527f63757272656e742074696d650000000000000000000000000000000000000000602082015250565b6000610b30602c83610a31565b9150610b3b82610ad4565b604082019050919050565b60006020820190508181036000830152610b5f81610b23565b9050919050565b60008190508160005260206000209050919050565b60006020601f8301049050919050565b600082821b905092915050565b600060088302610bc87fffffffffffffffffffffffffffffffffffffffffffffffffffffffffffffffff82610b8b565b610bd28683610b8b565b95508019841693508086168417925050509392505050565b6000819050919050565b6000610c0f610c0a610c05846106fd565b610bea565b6106fd565b9050919050565b6000819050919050565b610c2983610bf4565b610c3d610c3582610c16565b848454610b98565b825550505050565b600090565b610c52610c45565b610c5d818484610c20565b505050565b5b81811015610c8157610c76600082610c4a565b600181019050610c63565b5050565b601f821115610cc657610c9781610b66565b610ca084610b7b565b81016020851015610caf578190505b610cc3610cbb85610b7b565b830182610c62565b50505b505050565b600082821c905092915050565b6000610ce960001984600802610ccb565b1980831691505092915050565b6000610d028383610cd8565b9150826002028217905092915050565b610d1b82610812565b67ffffffffffffffff811115610d3457610d33610589565b5b610d3e8254610a00565b610d49828285610c85565b600060209050601f831160018114610d7c5760008415610d6a578287015190505b610d748582610cf6565b865550610ddc565b601f198416610d8a86610b66565b60005b82811015610db257848901518255600182019150602085019450602081019050610d8d565b86831015610dcf5784890151610dcb601f891682610cd8565b8355505b6001600288020188555050505b505050505050565b600081905092915050565b6000610dfa82610812565b610e048185610de4565b9350610e1481856020860161082e565b80840191505092915050565b6000610e2c8284610def565b91508190509291505056fea2646970667358221220152af316de693dfbf073866160b270c981239f2071f92f0ccd74a08b0200d47964736f6c63430008110033",
					"opcodes": "PUSH1 0x80 PUSH1 0x40 MSTORE CALLVALUE DUP1 ISZERO PUSH2 0x10 JUMPI PUSH1 0x0 DUP1 REVERT JUMPDEST POP CALLER PUSH1 0x0 DUP1 PUSH2 0x100 EXP DUP2 SLOAD DUP2 PUSH20 0xFFFFFFFFFFFFFFFFFFFFFFFFFFFFFFFFFFFFFFFF MUL NOT AND SWAP1 DUP4 PUSH20 0xFFFFFFFFFFFFFFFFFFFFFFFFFFFFFFFFFFFFFFFF AND MUL OR SWAP1 SSTORE POP PUSH2 0xE6D DUP1 PUSH2 0x60 PUSH1 0x0 CODECOPY PUSH1 0x0 RETURN INVALID PUSH1 0x80 PUSH1 0x40 MSTORE PUSH1 0x4 CALLDATASIZE LT PUSH2 0x86 JUMPI PUSH1 0x0 CALLDATALOAD PUSH1 0xE0 SHR DUP1 PUSH4 0xAB75207D GT PUSH2 0x59 JUMPI DUP1 PUSH4 0xAB75207D EQ PUSH2 0x16D JUMPI DUP1 PUSH4 0xD7C06919 EQ PUSH2 0x184 JUMPI DUP1 PUSH4 0xDB774C79 EQ PUSH2 0x1AF JUMPI DUP1 PUSH4 0xE6F1CE52 EQ PUSH2 0x1B9 JUMPI DUP1 PUSH4 0xFE67A54B EQ PUSH2 0x1E2 JUMPI PUSH2 0x86 JUMP JUMPDEST DUP1 PUSH4 0x99EF2F9 EQ PUSH2 0x8B JUMPI DUP1 PUSH4 0x43279F12 EQ PUSH2 0xC8 JUMPI DUP1 PUSH4 0x4881B603 EQ PUSH2 0x105 JUMPI DUP1 PUSH4 0x8DA5CB5B EQ PUSH2 0x142 JUMPI JUMPDEST PUSH1 0x0 DUP1 REVERT JUMPDEST CALLVALUE DUP1 ISZERO PUSH2 0x97 JUMPI PUSH1 0x0 DUP1 REVERT JUMPDEST POP PUSH2 0xB2 PUSH1 0x4 DUP1 CALLDATASIZE SUB DUP2 ADD SWAP1 PUSH2 0xAD SWAP2 SWAP1 PUSH2 0x6B4 JUMP JUMPDEST PUSH2 0x1F9 JUMP JUMPDEST PUSH1 0x40 MLOAD PUSH2 0xBF SWAP2 SWAP1 PUSH2 0x716 JUMP JUMPDEST PUSH1 0x40 MLOAD DUP1 SWAP2 SUB SWAP1 RETURN JUMPDEST CALLVALUE DUP1 ISZERO PUSH2 0xD4 JUMPI PUSH1 0x0 DUP1 REVERT JUMPDEST POP PUSH2 0xEF PUSH1 0x4 DUP1 CALLDATASIZE SUB DUP2 ADD SWAP1 PUSH2 0xEA SWAP2 SWAP1 PUSH2 0x6B4 JUMP JUMPDEST PUSH2 0x227 JUMP JUMPDEST PUSH1 0x40 MLOAD PUSH2 0xFC SWAP2 SWAP1 PUSH2 0x716 JUMP JUMPDEST PUSH1 0x40 MLOAD DUP1 SWAP2 SUB SWAP1 RETURN JUMPDEST CALLVALUE DUP1 ISZERO PUSH2 0x111 JUMPI PUSH1 0x0 DUP1 REVERT JUMPDEST POP PUSH2 0x12C PUSH1 0x4 DUP1 CALLDATASIZE SUB DUP2 ADD SWAP1 PUSH2 0x127 SWAP2 SWAP1 PUSH2 0x78F JUMP JUMPDEST PUSH2 0x255 JUMP JUMPDEST PUSH1 0x40 MLOAD PUSH2 0x139 SWAP2 SWAP1 PUSH2 0x716 JUMP JUMPDEST PUSH1 0x40 MLOAD DUP1 SWAP2 SUB SWAP1 RETURN JUMPDEST CALLVALUE DUP1 ISZERO PUSH2 0x14E JUMPI PUSH1 0x0 DUP1 REVERT JUMPDEST POP PUSH2 0x157 PUSH2 0x26D JUMP JUMPDEST PUSH1 0x40 MLOAD PUSH2 0x164 SWAP2 SWAP1 PUSH2 0x7CB JUMP JUMPDEST PUSH1 0x40 MLOAD DUP1 SWAP2 SUB SWAP1 RETURN JUMPDEST CALLVALUE DUP1 ISZERO PUSH2 0x179 JUMPI PUSH1 0x0 DUP1 REVERT JUMPDEST POP PUSH2 0x182 PUSH2 0x291 JUMP JUMPDEST STOP JUMPDEST CALLVALUE DUP1 ISZERO PUSH2 0x190 JUMPI PUSH1 0x0 DUP1 REVERT JUMPDEST POP PUSH2 0x199 PUSH2 0x293 JUMP JUMPDEST PUSH1 0x40 MLOAD PUSH2 0x1A6 SWAP2 SWAP1 PUSH2 0x927 JUMP JUMPDEST PUSH1 0x40 MLOAD DUP1 SWAP2 SUB SWAP1 RETURN JUMPDEST PUSH2 0x1B7 PUSH2 0x3CA JUMP JUMPDEST STOP JUMPDEST CALLVALUE DUP1 ISZERO PUSH2 0x1C5 JUMPI PUSH1 0x0 DUP1 REVERT JUMPDEST POP PUSH2 0x1E0 PUSH1 0x4 DUP1 CALLDATASIZE SUB DUP2 ADD SWAP1 PUSH2 0x1DB SWAP2 SWAP1 PUSH2 0x975 JUMP JUMPDEST PUSH2 0x3CC JUMP JUMPDEST STOP JUMPDEST CALLVALUE DUP1 ISZERO PUSH2 0x1EE JUMPI PUSH1 0x0 DUP1 REVERT JUMPDEST POP PUSH2 0x1F7 PUSH2 0x558 JUMP JUMPDEST STOP JUMPDEST PUSH1 0x3 DUP2 DUP1 MLOAD PUSH1 0x20 DUP2 ADD DUP3 ADD DUP1 MLOAD DUP5 DUP3 MSTORE PUSH1 0x20 DUP4 ADD PUSH1 0x20 DUP6 ADD KECCAK256 DUP2 DUP4 MSTORE DUP1 SWAP6 POP POP POP POP POP POP PUSH1 0x0 SWAP2 POP SWAP1 POP SLOAD DUP2 JUMP JUMPDEST PUSH1 0x2 DUP2 DUP1 MLOAD PUSH1 0x20 DUP2 ADD DUP3 ADD DUP1 MLOAD DUP5 DUP3 MSTORE PUSH1 0x20 DUP4 ADD PUSH1 0x20 DUP6 ADD KECCAK256 DUP2 DUP4 MSTORE DUP1 SWAP6 POP POP POP POP POP POP PUSH1 0x0 SWAP2 POP SWAP1 POP SLOAD DUP2 JUMP JUMPDEST PUSH1 0x1 PUSH1 0x20 MSTORE DUP1 PUSH1 0x0 MSTORE PUSH1 0x40 PUSH1 0x0 KECCAK256 PUSH1 0x0 SWAP2 POP SWAP1 POP SLOAD DUP2 JUMP JUMPDEST PUSH1 0x0 DUP1 SLOAD SWAP1 PUSH2 0x100 EXP SWAP1 DIV PUSH20 0xFFFFFFFFFFFFFFFFFFFFFFFFFFFFFFFFFFFFFFFF AND DUP2 JUMP JUMPDEST JUMP JUMPDEST PUSH1 0x60 PUSH1 0x4 PUSH1 0x0 DUP1 PUSH1 0x0 SWAP1 SLOAD SWAP1 PUSH2 0x100 EXP SWAP1 DIV PUSH20 0xFFFFFFFFFFFFFFFFFFFFFFFFFFFFFFFFFFFFFFFF AND PUSH20 0xFFFFFFFFFFFFFFFFFFFFFFFFFFFFFFFFFFFFFFFF AND PUSH20 0xFFFFFFFFFFFFFFFFFFFFFFFFFFFFFFFFFFFFFFFF AND DUP2 MSTORE PUSH1 0x20 ADD SWAP1 DUP2 MSTORE PUSH1 0x20 ADD PUSH1 0x0 KECCAK256 DUP1 SLOAD DUP1 PUSH1 0x20 MUL PUSH1 0x20 ADD PUSH1 0x40 MLOAD SWAP1 DUP2 ADD PUSH1 0x40 MSTORE DUP1 SWAP3 SWAP2 SWAP1 DUP2 DUP2 MSTORE PUSH1 0x20 ADD PUSH1 0x0 SWAP1 JUMPDEST DUP3 DUP3 LT ISZERO PUSH2 0x3C1 JUMPI DUP4 DUP3 SWAP1 PUSH1 0x0 MSTORE PUSH1 0x20 PUSH1 0x0 KECCAK256 ADD DUP1 SLOAD PUSH2 0x334 SWAP1 PUSH2 0xA00 JUMP JUMPDEST DUP1 PUSH1 0x1F ADD PUSH1 0x20 DUP1 SWAP2 DIV MUL PUSH1 0x20 ADD PUSH1 0x40 MLOAD SWAP1 DUP2 ADD PUSH1 0x40 MSTORE DUP1 SWAP3 SWAP2 SWAP1 DUP2 DUP2 MSTORE PUSH1 0x20 ADD DUP3 DUP1 SLOAD PUSH2 0x360 SWAP1 PUSH2 0xA00 JUMP JUMPDEST DUP1 ISZERO PUSH2 0x3AD JUMPI DUP1 PUSH1 0x1F LT PUSH2 0x382 JUMPI PUSH2 0x100 DUP1 DUP4 SLOAD DIV MUL DUP4 MSTORE SWAP2 PUSH1 0x20 ADD SWAP2 PUSH2 0x3AD JUMP JUMPDEST DUP3 ADD SWAP2 SWAP1 PUSH1 0x0 MSTORE PUSH1 0x20 PUSH1 0x0 KECCAK256 SWAP1 JUMPDEST DUP2 SLOAD DUP2 MSTORE SWAP1 PUSH1 0x1 ADD SWAP1 PUSH1 0x20 ADD DUP1 DUP4 GT PUSH2 0x390 JUMPI DUP3 SWAP1 SUB PUSH1 0x1F AND DUP3 ADD SWAP2 JUMPDEST POP POP POP POP POP DUP2 MSTORE PUSH1 0x20 ADD SWAP1 PUSH1 0x1 ADD SWAP1 PUSH2 0x315 JUMP JUMPDEST POP POP POP POP SWAP1 POP SWAP1 JUMP JUMPDEST JUMP JUMPDEST PUSH1 0x0 DUP1 SLOAD SWAP1 PUSH2 0x100 EXP SWAP1 DIV PUSH20 0xFFFFFFFFFFFFFFFFFFFFFFFFFFFFFFFFFFFFFFFF AND PUSH20 0xFFFFFFFFFFFFFFFFFFFFFFFFFFFFFFFFFFFFFFFF AND CALLER PUSH20 0xFFFFFFFFFFFFFFFFFFFFFFFFFFFFFFFFFFFFFFFF AND EQ PUSH2 0x45A JUMPI PUSH1 0x40 MLOAD PUSH32 0x8C379A000000000000000000000000000000000000000000000000000000000 DUP2 MSTORE PUSH1 0x4 ADD PUSH2 0x451 SWAP1 PUSH2 0xAB4 JUMP JUMPDEST PUSH1 0x40 MLOAD DUP1 SWAP2 SUB SWAP1 REVERT JUMPDEST TIMESTAMP DUP2 GT PUSH2 0x49C JUMPI PUSH1 0x40 MLOAD PUSH32 0x8C379A000000000000000000000000000000000000000000000000000000000 DUP2 MSTORE PUSH1 0x4 ADD PUSH2 0x493 SWAP1 PUSH2 0xB46 JUMP JUMPDEST PUSH1 0x40 MLOAD DUP1 SWAP2 SUB SWAP1 REVERT JUMPDEST PUSH1 0x4 PUSH1 0x0 CALLER PUSH20 0xFFFFFFFFFFFFFFFFFFFFFFFFFFFFFFFFFFFFFFFF AND PUSH20 0xFFFFFFFFFFFFFFFFFFFFFFFFFFFFFFFFFFFFFFFF AND DUP2 MSTORE PUSH1 0x20 ADD SWAP1 DUP2 MSTORE PUSH1 0x20 ADD PUSH1 0x0 KECCAK256 DUP3 SWAP1 DUP1 PUSH1 0x1 DUP2 SLOAD ADD DUP1 DUP3 SSTORE DUP1 SWAP2 POP POP PUSH1 0x1 SWAP1 SUB SWAP1 PUSH1 0x0 MSTORE PUSH1 0x20 PUSH1 0x0 KECCAK256 ADD PUSH1 0x0 SWAP1 SWAP2 SWAP1 SWAP2 SWAP1 SWAP2 POP SWAP1 DUP2 PUSH2 0x50D SWAP2 SWAP1 PUSH2 0xD12 JUMP JUMPDEST POP TIMESTAMP PUSH1 0x2 DUP4 PUSH1 0x40 MLOAD PUSH2 0x51F SWAP2 SWAP1 PUSH2 0xE20 JUMP JUMPDEST SWAP1 DUP2 MSTORE PUSH1 0x20 ADD PUSH1 0x40 MLOAD DUP1 SWAP2 SUB SWAP1 KECCAK256 DUP2 SWAP1 SSTORE POP DUP1 PUSH1 0x3 DUP4 PUSH1 0x40 MLOAD PUSH2 0x542 SWAP2 SWAP1 PUSH2 0xE20 JUMP JUMPDEST SWAP1 DUP2 MSTORE PUSH1 0x20 ADD PUSH1 0x40 MLOAD DUP1 SWAP2 SUB SWAP1 KECCAK256 DUP2 SWAP1 SSTORE POP POP POP JUMP JUMPDEST JUMP JUMPDEST PUSH1 0x0 PUSH1 0x40 MLOAD SWAP1 POP SWAP1 JUMP JUMPDEST PUSH1 0x0 DUP1 REVERT JUMPDEST PUSH1 0x0 DUP1 REVERT JUMPDEST PUSH1 0x0 DUP1 REVERT JUMPDEST PUSH1 0x0 DUP1 REVERT JUMPDEST PUSH1 0x0 PUSH1 0x1F NOT PUSH1 0x1F DUP4 ADD AND SWAP1 POP SWAP2 SWAP1 POP JUMP JUMPDEST PUSH32 0x4E487B7100000000000000000000000000000000000000000000000000000000 PUSH1 0x0 MSTORE PUSH1 0x41 PUSH1 0x4 MSTORE PUSH1 0x24 PUSH1 0x0 REVERT JUMPDEST PUSH2 0x5C1 DUP3 PUSH2 0x578 JUMP JUMPDEST DUP2 ADD DUP2 DUP2 LT PUSH8 0xFFFFFFFFFFFFFFFF DUP3 GT OR ISZERO PUSH2 0x5E0 JUMPI PUSH2 0x5DF PUSH2 0x589 JUMP JUMPDEST JUMPDEST DUP1 PUSH1 0x40 MSTORE POP POP POP JUMP JUMPDEST PUSH1 0x0 PUSH2 0x5F3 PUSH2 0x55A JUMP JUMPDEST SWAP1 POP PUSH2 0x5FF DUP3 DUP3 PUSH2 0x5B8 JUMP JUMPDEST SWAP2 SWAP1 POP JUMP JUMPDEST PUSH1 0x0 PUSH8 0xFFFFFFFFFFFFFFFF DUP3 GT ISZERO PUSH2 0x61F JUMPI PUSH2 0x61E PUSH2 0x589 JUMP JUMPDEST JUMPDEST PUSH2 0x628 DUP3 PUSH2 0x578 JUMP JUMPDEST SWAP1 POP PUSH1 0x20 DUP2 ADD SWAP1 POP SWAP2 SWAP1 POP JUMP JUMPDEST DUP3 DUP2 DUP4 CALLDATACOPY PUSH1 0x0 DUP4 DUP4 ADD MSTORE POP POP POP JUMP JUMPDEST PUSH1 0x0 PUSH2 0x657 PUSH2 0x652 DUP5 PUSH2 0x604 JUMP JUMPDEST PUSH2 0x5E9 JUMP JUMPDEST SWAP1 POP DUP3 DUP2 MSTORE PUSH1 0x20 DUP2 ADD DUP5 DUP5 DUP5 ADD GT ISZERO PUSH2 0x673 JUMPI PUSH2 0x672 PUSH2 0x573 JUMP JUMPDEST JUMPDEST PUSH2 0x67E DUP5 DUP3 DUP6 PUSH2 0x635 JUMP JUMPDEST POP SWAP4 SWAP3 POP POP POP JUMP JUMPDEST PUSH1 0x0 DUP3 PUSH1 0x1F DUP4 ADD SLT PUSH2 0x69B JUMPI PUSH2 0x69A PUSH2 0x56E JUMP JUMPDEST JUMPDEST DUP2 CALLDATALOAD PUSH2 0x6AB DUP5 DUP3 PUSH1 0x20 DUP7 ADD PUSH2 0x644 JUMP JUMPDEST SWAP2 POP POP SWAP3 SWAP2 POP POP JUMP JUMPDEST PUSH1 0x0 PUSH1 0x20 DUP3 DUP5 SUB SLT ISZERO PUSH2 0x6CA JUMPI PUSH2 0x6C9 PUSH2 0x564 JUMP JUMPDEST JUMPDEST PUSH1 0x0 DUP3 ADD CALLDATALOAD PUSH8 0xFFFFFFFFFFFFFFFF DUP2 GT ISZERO PUSH2 0x6E8 JUMPI PUSH2 0x6E7 PUSH2 0x569 JUMP JUMPDEST JUMPDEST PUSH2 0x6F4 DUP5 DUP3 DUP6 ADD PUSH2 0x686 JUMP JUMPDEST SWAP2 POP POP SWAP3 SWAP2 POP POP JUMP JUMPDEST PUSH1 0x0 DUP2 SWAP1 POP SWAP2 SWAP1 POP JUMP JUMPDEST PUSH2 0x710 DUP2 PUSH2 0x6FD JUMP JUMPDEST DUP3 MSTORE POP POP JUMP JUMPDEST PUSH1 0x0 PUSH1 0x20 DUP3 ADD SWAP1 POP PUSH2 0x72B PUSH1 0x0 DUP4 ADD DUP5 PUSH2 0x707 JUMP JUMPDEST SWAP3 SWAP2 POP POP JUMP JUMPDEST PUSH1 0x0 PUSH20 0xFFFFFFFFFFFFFFFFFFFFFFFFFFFFFFFFFFFFFFFF DUP3 AND SWAP1 POP SWAP2 SWAP1 POP JUMP JUMPDEST PUSH1 0x0 PUSH2 0x75C DUP3 PUSH2 0x731 JUMP JUMPDEST SWAP1 POP SWAP2 SWAP1 POP JUMP JUMPDEST PUSH2 0x76C DUP2 PUSH2 0x751 JUMP JUMPDEST DUP2 EQ PUSH2 0x777 JUMPI PUSH1 0x0 DUP1 REVERT JUMPDEST POP JUMP JUMPDEST PUSH1 0x0 DUP2 CALLDATALOAD SWAP1 POP PUSH2 0x789 DUP2 PUSH2 0x763 JUMP JUMPDEST SWAP3 SWAP2 POP POP JUMP JUMPDEST PUSH1 0x0 PUSH1 0x20 DUP3 DUP5 SUB SLT ISZERO PUSH2 0x7A5 JUMPI PUSH2 0x7A4 PUSH2 0x564 JUMP JUMPDEST JUMPDEST PUSH1 0x0 PUSH2 0x7B3 DUP5 DUP3 DUP6 ADD PUSH2 0x77A JUMP JUMPDEST SWAP2 POP POP SWAP3 SWAP2 POP POP JUMP JUMPDEST PUSH2 0x7C5 DUP2 PUSH2 0x751 JUMP JUMPDEST DUP3 MSTORE POP POP JUMP JUMPDEST PUSH1 0x0 PUSH1 0x20 DUP3 ADD SWAP1 POP PUSH2 0x7E0 PUSH1 0x0 DUP4 ADD DUP5 PUSH2 0x7BC JUMP JUMPDEST SWAP3 SWAP2 POP POP JUMP JUMPDEST PUSH1 0x0 DUP2 MLOAD SWAP1 POP SWAP2 SWAP1 POP JUMP JUMPDEST PUSH1 0x0 DUP3 DUP3 MSTORE PUSH1 0x20 DUP3 ADD SWAP1 POP SWAP3 SWAP2 POP POP JUMP JUMPDEST PUSH1 0x0 DUP2 SWAP1 POP PUSH1 0x20 DUP3 ADD SWAP1 POP SWAP2 SWAP1 POP JUMP JUMPDEST PUSH1 0x0 DUP2 MLOAD SWAP1 POP SWAP2 SWAP1 POP JUMP JUMPDEST PUSH1 0x0 DUP3 DUP3 MSTORE PUSH1 0x20 DUP3 ADD SWAP1 POP SWAP3 SWAP2 POP POP JUMP JUMPDEST PUSH1 0x0 JUMPDEST DUP4 DUP2 LT ISZERO PUSH2 0x84C JUMPI DUP1 DUP3 ADD MLOAD DUP2 DUP5 ADD MSTORE PUSH1 0x20 DUP2 ADD SWAP1 POP PUSH2 0x831 JUMP JUMPDEST PUSH1 0x0 DUP5 DUP5 ADD MSTORE POP POP POP POP JUMP JUMPDEST PUSH1 0x0 PUSH2 0x863 DUP3 PUSH2 0x812 JUMP JUMPDEST PUSH2 0x86D DUP2 DUP6 PUSH2 0x81D JUMP JUMPDEST SWAP4 POP PUSH2 0x87D DUP2 DUP6 PUSH1 0x20 DUP7 ADD PUSH2 0x82E JUMP JUMPDEST PUSH2 0x886 DUP2 PUSH2 0x578 JUMP JUMPDEST DUP5 ADD SWAP2 POP POP SWAP3 SWAP2 POP POP JUMP JUMPDEST PUSH1 0x0 PUSH2 0x89D DUP4 DUP4 PUSH2 0x858 JUMP JUMPDEST SWAP1 POP SWAP3 SWAP2 POP POP JUMP JUMPDEST PUSH1 0x0 PUSH1 0x20 DUP3 ADD SWAP1 POP SWAP2 SWAP1 POP JUMP JUMPDEST PUSH1 0x0 PUSH2 0x8BD DUP3 PUSH2 0x7E6 JUMP JUMPDEST PUSH2 0x8C7 DUP2 DUP6 PUSH2 0x7F1 JUMP JUMPDEST SWAP4 POP DUP4 PUSH1 0x20 DUP3 MUL DUP6 ADD PUSH2 0x8D9 DUP6 PUSH2 0x802 JUMP JUMPDEST DUP1 PUSH1 0x0 JUMPDEST DUP6 DUP2 LT ISZERO PUSH2 0x915 JUMPI DUP5 DUP5 SUB DUP10 MSTORE DUP2 MLOAD PUSH2 0x8F6 DUP6 DUP3 PUSH2 0x891 JUMP JUMPDEST SWAP5 POP PUSH2 0x901 DUP4 PUSH2 0x8A5 JUMP JUMPDEST SWAP3 POP PUSH1 0x20 DUP11 ADD SWAP10 POP POP PUSH1 0x1 DUP2 ADD SWAP1 POP PUSH2 0x8DD JUMP JUMPDEST POP DUP3 SWAP8 POP DUP8 SWAP6 POP POP POP POP POP POP SWAP3 SWAP2 POP POP JUMP JUMPDEST PUSH1 0x0 PUSH1 0x20 DUP3 ADD SWAP1 POP DUP2 DUP2 SUB PUSH1 0x0 DUP4 ADD MSTORE PUSH2 0x941 DUP2 DUP5 PUSH2 0x8B2 JUMP JUMPDEST SWAP1 POP SWAP3 SWAP2 POP POP JUMP JUMPDEST PUSH2 0x952 DUP2 PUSH2 0x6FD JUMP JUMPDEST DUP2 EQ PUSH2 0x95D JUMPI PUSH1 0x0 DUP1 REVERT JUMPDEST POP JUMP JUMPDEST PUSH1 0x0 DUP2 CALLDATALOAD SWAP1 POP PUSH2 0x96F DUP2 PUSH2 0x949 JUMP JUMPDEST SWAP3 SWAP2 POP POP JUMP JUMPDEST PUSH1 0x0 DUP1 PUSH1 0x40 DUP4 DUP6 SUB SLT ISZERO PUSH2 0x98C JUMPI PUSH2 0x98B PUSH2 0x564 JUMP JUMPDEST JUMPDEST PUSH1 0x0 DUP4 ADD CALLDATALOAD PUSH8 0xFFFFFFFFFFFFFFFF DUP2 GT ISZERO PUSH2 0x9AA JUMPI PUSH2 0x9A9 PUSH2 0x569 JUMP JUMPDEST JUMPDEST PUSH2 0x9B6 DUP6 DUP3 DUP7 ADD PUSH2 0x686 JUMP JUMPDEST SWAP3 POP POP PUSH1 0x20 PUSH2 0x9C7 DUP6 DUP3 DUP7 ADD PUSH2 0x960 JUMP JUMPDEST SWAP2 POP POP SWAP3 POP SWAP3 SWAP1 POP JUMP JUMPDEST PUSH32 0x4E487B7100000000000000000000000000000000000000000000000000000000 PUSH1 0x0 MSTORE PUSH1 0x22 PUSH1 0x4 MSTORE PUSH1 0x24 PUSH1 0x0 REVERT JUMPDEST PUSH1 0x0 PUSH1 0x2 DUP3 DIV SWAP1 POP PUSH1 0x1 DUP3 AND DUP1 PUSH2 0xA18 JUMPI PUSH1 0x7F DUP3 AND SWAP2 POP JUMPDEST PUSH1 0x20 DUP3 LT DUP2 SUB PUSH2 0xA2B JUMPI PUSH2 0xA2A PUSH2 0x9D1 JUMP JUMPDEST JUMPDEST POP SWAP2 SWAP1 POP JUMP JUMPDEST PUSH1 0x0 DUP3 DUP3 MSTORE PUSH1 0x20 DUP3 ADD SWAP1 POP SWAP3 SWAP2 POP POP JUMP JUMPDEST PUSH32 0x6F6E6C79206F776E65722063616E20696E697469616C697A6520746865206175 PUSH1 0x0 DUP3 ADD MSTORE PUSH32 0x6374696F6E000000000000000000000000000000000000000000000000000000 PUSH1 0x20 DUP3 ADD MSTORE POP JUMP JUMPDEST PUSH1 0x0 PUSH2 0xA9E PUSH1 0x25 DUP4 PUSH2 0xA31 JUMP JUMPDEST SWAP2 POP PUSH2 0xAA9 DUP3 PUSH2 0xA42 JUMP JUMPDEST PUSH1 0x40 DUP3 ADD SWAP1 POP SWAP2 SWAP1 POP JUMP JUMPDEST PUSH1 0x0 PUSH1 0x20 DUP3 ADD SWAP1 POP DUP2 DUP2 SUB PUSH1 0x0 DUP4 ADD MSTORE PUSH2 0xACD DUP2 PUSH2 0xA91 JUMP JUMPDEST SWAP1 POP SWAP2 SWAP1 POP JUMP JUMPDEST PUSH32 0x446561646C696E652073686F756C642062652067726561746572207468656E20 PUSH1 0x0 DUP3 ADD MSTORE PUSH32 0x63757272656E742074696D650000000000000000000000000000000000000000 PUSH1 0x20 DUP3 ADD MSTORE POP JUMP JUMPDEST PUSH1 0x0 PUSH2 0xB30 PUSH1 0x2C DUP4 PUSH2 0xA31 JUMP JUMPDEST SWAP2 POP PUSH2 0xB3B DUP3 PUSH2 0xAD4 JUMP JUMPDEST PUSH1 0x40 DUP3 ADD SWAP1 POP SWAP2 SWAP1 POP JUMP JUMPDEST PUSH1 0x0 PUSH1 0x20 DUP3 ADD SWAP1 POP DUP2 DUP2 SUB PUSH1 0x0 DUP4 ADD MSTORE PUSH2 0xB5F DUP2 PUSH2 0xB23 JUMP JUMPDEST SWAP1 POP SWAP2 SWAP1 POP JUMP JUMPDEST PUSH1 0x0 DUP2 SWAP1 POP DUP2 PUSH1 0x0 MSTORE PUSH1 0x20 PUSH1 0x0 KECCAK256 SWAP1 POP SWAP2 SWAP1 POP JUMP JUMPDEST PUSH1 0x0 PUSH1 0x20 PUSH1 0x1F DUP4 ADD DIV SWAP1 POP SWAP2 SWAP1 POP JUMP JUMPDEST PUSH1 0x0 DUP3 DUP3 SHL SWAP1 POP SWAP3 SWAP2 POP POP JUMP JUMPDEST PUSH1 0x0 PUSH1 0x8 DUP4 MUL PUSH2 0xBC8 PUSH32 0xFFFFFFFFFFFFFFFFFFFFFFFFFFFFFFFFFFFFFFFFFFFFFFFFFFFFFFFFFFFFFFFF DUP3 PUSH2 0xB8B JUMP JUMPDEST PUSH2 0xBD2 DUP7 DUP4 PUSH2 0xB8B JUMP JUMPDEST SWAP6 POP DUP1 NOT DUP5 AND SWAP4 POP DUP1 DUP7 AND DUP5 OR SWAP3 POP POP POP SWAP4 SWAP3 POP POP POP JUMP JUMPDEST PUSH1 0x0 DUP2 SWAP1 POP SWAP2 SWAP1 POP JUMP JUMPDEST PUSH1 0x0 PUSH2 0xC0F PUSH2 0xC0A PUSH2 0xC05 DUP5 PUSH2 0x6FD JUMP JUMPDEST PUSH2 0xBEA JUMP JUMPDEST PUSH2 0x6FD JUMP JUMPDEST SWAP1 POP SWAP2 SWAP1 POP JUMP JUMPDEST PUSH1 0x0 DUP2 SWAP1 POP SWAP2 SWAP1 POP JUMP JUMPDEST PUSH2 0xC29 DUP4 PUSH2 0xBF4 JUMP JUMPDEST PUSH2 0xC3D PUSH2 0xC35 DUP3 PUSH2 0xC16 JUMP JUMPDEST DUP5 DUP5 SLOAD PUSH2 0xB98 JUMP JUMPDEST DUP3 SSTORE POP POP POP POP JUMP JUMPDEST PUSH1 0x0 SWAP1 JUMP JUMPDEST PUSH2 0xC52 PUSH2 0xC45 JUMP JUMPDEST PUSH2 0xC5D DUP2 DUP5 DUP5 PUSH2 0xC20 JUMP JUMPDEST POP POP POP JUMP JUMPDEST JUMPDEST DUP2 DUP2 LT ISZERO PUSH2 0xC81 JUMPI PUSH2 0xC76 PUSH1 0x0 DUP3 PUSH2 0xC4A JUMP JUMPDEST PUSH1 0x1 DUP2 ADD SWAP1 POP PUSH2 0xC63 JUMP JUMPDEST POP POP JUMP JUMPDEST PUSH1 0x1F DUP3 GT ISZERO PUSH2 0xCC6 JUMPI PUSH2 0xC97 DUP2 PUSH2 0xB66 JUMP JUMPDEST PUSH2 0xCA0 DUP5 PUSH2 0xB7B JUMP JUMPDEST DUP2 ADD PUSH1 0x20 DUP6 LT ISZERO PUSH2 0xCAF JUMPI DUP2 SWAP1 POP JUMPDEST PUSH2 0xCC3 PUSH2 0xCBB DUP6 PUSH2 0xB7B JUMP JUMPDEST DUP4 ADD DUP3 PUSH2 0xC62 JUMP JUMPDEST POP POP JUMPDEST POP POP POP JUMP JUMPDEST PUSH1 0x0 DUP3 DUP3 SHR SWAP1 POP SWAP3 SWAP2 POP POP JUMP JUMPDEST PUSH1 0x0 PUSH2 0xCE9 PUSH1 0x0 NOT DUP5 PUSH1 0x8 MUL PUSH2 0xCCB JUMP JUMPDEST NOT DUP1 DUP4 AND SWAP2 POP POP SWAP3 SWAP2 POP POP JUMP JUMPDEST PUSH1 0x0 PUSH2 0xD02 DUP4 DUP4 PUSH2 0xCD8 JUMP JUMPDEST SWAP2 POP DUP3 PUSH1 0x2 MUL DUP3 OR SWAP1 POP SWAP3 SWAP2 POP POP JUMP JUMPDEST PUSH2 0xD1B DUP3 PUSH2 0x812 JUMP JUMPDEST PUSH8 0xFFFFFFFFFFFFFFFF DUP2 GT ISZERO PUSH2 0xD34 JUMPI PUSH2 0xD33 PUSH2 0x589 JUMP JUMPDEST JUMPDEST PUSH2 0xD3E DUP3 SLOAD PUSH2 0xA00 JUMP JUMPDEST PUSH2 0xD49 DUP3 DUP3 DUP6 PUSH2 0xC85 JUMP JUMPDEST PUSH1 0x0 PUSH1 0x20 SWAP1 POP PUSH1 0x1F DUP4 GT PUSH1 0x1 DUP2 EQ PUSH2 0xD7C JUMPI PUSH1 0x0 DUP5 ISZERO PUSH2 0xD6A JUMPI DUP3 DUP8 ADD MLOAD SWAP1 POP JUMPDEST PUSH2 0xD74 DUP6 DUP3 PUSH2 0xCF6 JUMP JUMPDEST DUP7 SSTORE POP PUSH2 0xDDC JUMP JUMPDEST PUSH1 0x1F NOT DUP5 AND PUSH2 0xD8A DUP7 PUSH2 0xB66 JUMP JUMPDEST PUSH1 0x0 JUMPDEST DUP3 DUP2 LT ISZERO PUSH2 0xDB2 JUMPI DUP5 DUP10 ADD MLOAD DUP3 SSTORE PUSH1 0x1 DUP3 ADD SWAP2 POP PUSH1 0x20 DUP6 ADD SWAP5 POP PUSH1 0x20 DUP2 ADD SWAP1 POP PUSH2 0xD8D JUMP JUMPDEST DUP7 DUP4 LT ISZERO PUSH2 0xDCF JUMPI DUP5 DUP10 ADD MLOAD PUSH2 0xDCB PUSH1 0x1F DUP10 AND DUP3 PUSH2 0xCD8 JUMP JUMPDEST DUP4 SSTORE POP JUMPDEST PUSH1 0x1 PUSH1 0x2 DUP9 MUL ADD DUP9 SSTORE POP POP POP JUMPDEST POP POP POP POP POP POP JUMP JUMPDEST PUSH1 0x0 DUP2 SWAP1 POP SWAP3 SWAP2 POP POP JUMP JUMPDEST PUSH1 0x0 PUSH2 0xDFA DUP3 PUSH2 0x812 JUMP JUMPDEST PUSH2 0xE04 DUP2 DUP6 PUSH2 0xDE4 JUMP JUMPDEST SWAP4 POP PUSH2 0xE14 DUP2 DUP6 PUSH1 0x20 DUP7 ADD PUSH2 0x82E JUMP JUMPDEST DUP1 DUP5 ADD SWAP2 POP POP SWAP3 SWAP2 POP POP JUMP JUMPDEST PUSH1 0x0 PUSH2 0xE2C DUP3 DUP5 PUSH2 0xDEF JUMP JUMPDEST SWAP2 POP DUP2 SWAP1 POP SWAP3 SWAP2 POP POP JUMP INVALID LOG2 PUSH5 0x6970667358 0x22 SLT KECCAK256 ISZERO 0x2A RETURN AND 0xDE PUSH10 0x3DFBF073866160B270C9 DUP2 0x23 SWAP16 KECCAK256 PUSH18 0xF92F0CCD74A08B0200D47964736F6C634300 ADDMOD GT STOP CALLER "
				},
				"gasEstimates": {
					"creation": {
						"codeDepositCost": "738600",
						"executionCost": "25039",
						"totalCost": "763639"
					},
					"external": {
						"auctionEndTime(string)": "infinite",
						"auctionStartTime(string)": "infinite",
						"bidAmount(address)": "2859",
						"bidding()": "164",
						"endAuction()": "232",
						"getAuctions()": "infinite",
						"inititalize(string,uint256)": "infinite",
						"owner()": "2578",
						"settleMent()": "144"
					}
				},
				"methodIdentifiers": {
					"auctionEndTime(string)": "099ef2f9",
					"auctionStartTime(string)": "43279f12",
					"bidAmount(address)": "4881b603",
					"bidding()": "db774c79",
					"endAuction()": "fe67a54b",
					"getAuctions()": "d7c06919",
					"inititalize(string,uint256)": "e6f1ce52",
					"owner()": "8da5cb5b",
					"settleMent()": "ab75207d"
				}
			},
			"storageLayout": {
				"storage": [
					{
						"astId": 3,
						"contract": "contracts/Auction.sol:Auction",
						"label": "owner",
						"offset": 0,
						"slot": "0",
						"type": "t_address"
					},
					{
						"astId": 7,
						"contract": "contracts/Auction.sol:Auction",
						"label": "bidAmount",
						"offset": 0,
						"slot": "1",
						"type": "t_mapping(t_address,t_uint256)"
					},
					{
						"astId": 11,
						"contract": "contracts/Auction.sol:Auction",
						"label": "auctionStartTime",
						"offset": 0,
						"slot": "2",
						"type": "t_mapping(t_string_memory_ptr,t_uint256)"
					},
					{
						"astId": 15,
						"contract": "contracts/Auction.sol:Auction",
						"label": "auctionEndTime",
						"offset": 0,
						"slot": "3",
						"type": "t_mapping(t_string_memory_ptr,t_uint256)"
					},
					{
						"astId": 20,
						"contract": "contracts/Auction.sol:Auction",
						"label": "auctionOf",
						"offset": 0,
						"slot": "4",
						"type": "t_mapping(t_address,t_array(t_string_storage)dyn_storage)"
					}
				],
				"types": {
					"t_address": {
						"encoding": "inplace",
						"label": "address",
						"numberOfBytes": "20"
					},
					"t_array(t_string_storage)dyn_storage": {
						"base": "t_string_storage",
						"encoding": "dynamic_array",
						"label": "string[]",
						"numberOfBytes": "32"
					},
					"t_mapping(t_address,t_array(t_string_storage)dyn_storage)": {
						"encoding": "mapping",
						"key": "t_address",
						"label": "mapping(address => string[])",
						"numberOfBytes": "32",
						"value": "t_array(t_string_storage)dyn_storage"
					},
					"t_mapping(t_address,t_uint256)": {
						"encoding": "mapping",
						"key": "t_address",
						"label": "mapping(address => uint256)",
						"numberOfBytes": "32",
						"value": "t_uint256"
					},
					"t_mapping(t_string_memory_ptr,t_uint256)": {
						"encoding": "mapping",
						"key": "t_string_memory_ptr",
						"label": "mapping(string => uint256)",
						"numberOfBytes": "32",
						"value": "t_uint256"
					},
					"t_string_memory_ptr": {
						"encoding": "bytes",
						"label": "string",
						"numberOfBytes": "32"
					},
					"t_string_storage": {
						"encoding": "bytes",
						"label": "string",
						"numberOfBytes": "32"
					},
					"t_uint256": {
						"encoding": "inplace",
						"label": "uint256",
						"numberOfBytes": "32"
					}
				}
			},
			"userdoc": {
				"kind": "user",
				"methods": {},
				"version": 1
			}
		}
	}
}